:0600000002002B020003C8
:03000B0002000BE5
:03001300020013D5
:03001B0002001BC5
:03002300020023B5
:10002B0075830075820074FF75F0613108900118BB
:10003B007800798011EE9001187800799011EE908C
:10004B000118780079A011EE900118780079B011A1
:10005B00EE900118780079C011EE900118780079B4
:10006B00D011EE900118780079E011EE900118781C
:10007B000079F011EE900118780079807F0011CC97
:10008B009001187800799011CC900118780079A024
:10009B0011CC900118780079B011CC900118780030
:1000AB0079C011CC900118780079D011CC9001183F
:1000BB00780079E011CC900118780079F011CC80A0
:1000CB00FEE493601CF5F0AA82AB8388828983E0FF
:1000DB00B5F00CA3A882A9838A828B83A380E27FCD
:1000EB00000F22E4936015AA82AB8388828983F088
:1000FB00A3A882A9838A828B83A380E722F8E5F0E9
:10010B00F0A3D8FA22FAE493F0A3DAFA2242524986
:10011B004E47204241434B2041204E4557205345EB
:10012B004C460D0A412073696C656E7420636174D3
:10013B0068656472616C2C2061206D6F6F6E2D642D
:10014B0072656E63686564206C616B652C20612041
:10015B00736E61746368206F6620736F6E672E0D0C
:10016B000A41207265766572656E742068616C66F3
:10017B0020686F7572206265666F726520746865A2
:10018B002056656E7573206465204D696C6F206F0A
:10019B007220746865204D6F6E61204C6973612EFF
:1001AB000D0A416E20616E6369656E7420746F7702
:1001BB006E2068616C6C2C206120676C65616D69C9
:1001CB006E672067686F73742D6861756E746564F4
:1001DB002070616C6163652E0D0A4120666F756E30
:1001EB007461696E2C2061206761626C652C2061E3
:1001FB0020676174657761792E0D0A43616E206FFC
:10020B006E652072756220656C626F7773207769FB
:10021B0074682062656175747920776974686F758D
:10022B0074206162736F7262696E6720736F6D65A4
:10023B0020736C6967687420736861646F77206FD3
:10024B00662069743F0D0A4F6E65206D75737420BF
:10025B00636F6D6520686F6D6520612064696666EC
:10026B006572656E7420706572736F6E2D2D66727C
:10027B006573682C2076697669642C2065616765E7
:03028B00722E00D0
:00000001FF
