:0600000002002B020003C8
:03000B0002000BE5
:03001300020013D5
:03001B0002001BC5
:03002300020023B5
:10002B0075830075820074FF75F06111C99000D95A
:10003B007800798011AF9000D97800799011AF904A
:10004B0000D9780079A011AF9000D9780079B01160
:10005B00AF9000D9780079C011AF9000D9780079B2
:10006B00D011AF9000D9780079E011AF9000D9781A
:10007B000079F011AF9000D978007980118B80FE58
:10008B007F00E493601CF5F0AA82AB83888289839E
:10009B00E0B5F00CA3A882A9838A828B83A380E2AC
:1000AB007FFFEF22E4936015AA82AB83888289835A
:1000BB00F0A3A882A9838A828B83A380E722F8E529
:1000CB00F0F0A3D8FA22FAE493F0A3DAFA22425220
:1000DB00494E47204241434B2041204E4557205328
:1000EB00454C460D0A412073696C656E7420636143
:1000FB007468656472616C2C2061206D6F6F6E2D5E
:10010B006472656E63686564206C616B652C20613D
:10011B0020736E61746368206F6620736F6E672E39
:10012B000D0A41207265766572656E742068616C8C
:10013B006620686F7572206265666F7265207468E1
:10014B00652056656E7573206465204D696C6F2054
:10015B006F7220746865204D6F6E61204C697361FE
:10016B002E0D0A416E20616E6369656E7420746F8B
:10017B00776E2068616C6C2C206120676C65616DFB
:10018B00696E672067686F73742D6861756E74652F
:10019B00642070616C6163652E0D0A4120666F757A
:1001AB006E7461696E2C2061206761626C652C2016
:1001BB006120676174657761792E0D0A43616E204A
:1001CB006F6E652072756220656C626F7773207736
:1001DB006974682062656175747920776974686FDA
:1001EB007574206162736F7262696E6720736F6DD5
:1001FB006520736C6967687420736861646F77201E
:10020B006F662069743F0D0A4F6E65206D757374B0
:10021B0020636F6D6520686F6D6520612064696672
:10022B00666572656E7420706572736F6E2D2D66C8
:10023B00726573682C2076697669642C206561671A
:04024B0065722E00AA
:00000001FF
