:100000000200039000F3780079801200C99000F399
:10001000780079901200C99000F3780079A012005E
:10002000C99000F3780079B01200C99000F378000D
:1000300079C01200C99000F3780079D01200C990FD
:1000400000F3780079E01200C99000F3780079F0AD
:100050001200C99000F3780079807F001200A79009
:1000600000F3780079901200A79000F3780079A04F
:100070001200A79000F3780079B01200A79000F367
:10008000780079C01200A79000F3780079D01200B0
:10009000A79000F3780079E01200A79000F37800B1
:1000A00079F01200A780FEE493601CF5F0AA82AB01
:1000B0008388828983E0B5F00CA3A882A9838A8211
:1000C0008B83A380E27FFF0F22E4936015AA82ABAB
:1000D0008388828983F0A3A882A9838A828B83A3E1
:1000E00080E722F8E5F0F0A3D8FA22FAE493F0A32F
:1000F000DAFA224252494E47204241434B204120E6
:100100004E45572053454C460D0A412073696C6596
:100110006E742063617468656472616C2C20612068
:100120006D6F6F6E2D6472656E63686564206C61BF
:100130006B652C206120736E61746368206F66208C
:10014000736F6E672E0D0A41207265766572656E5B
:10015000742068616C6620686F7572206265666FD6
:100160007265207468652056656E7573206465201D
:100170004D696C6F206F7220746865204D6F6E61E1
:10018000204C6973612E0D0A416E20616E636965B2
:100190006E7420746F776E2068616C6C2C20612007
:1001A000676C65616D696E672067686F73742D6831
:1001B00061756E7465642070616C6163652E0D0AF3
:1001C0004120666F756E7461696E2C2061206761D5
:1001D000626C652C206120676174657761792E0DF2
:1001E0000A43616E206F6E652072756220656C62D5
:1001F0006F77732077697468206265617574792000
:10020000776974686F7574206162736F7262696E6A
:100210006720736F6D6520736C69676874207368FD
:1002200061646F77206F662069743F0D0A4F6E65B9
:10023000206D75737420636F6D6520686F6D652028
:100240006120646966666572656E7420706572739C
:100250006F6E2D2D66726573682C207669766964E1
:090260002C2065616765722E0017
:00000001FF
