:10003000222222221B5B41001B5B42001B5B430010
:100040001B5B44001B5B481B5B324A00E612083511
:1000500008F5F0E6120835C454F045F0C422E0601B
:1000600006B42003A380F722740A120465740D12EB
:100070000465227409120465227420120465221298
:100080000068900B86E493FF740193FE4F603B740D
:1000900009120465C083C0828F838E8212046F743C
:1000A00009120465120465D082D083A3A3E493FFF0
:1000B000740193FEC083C0828F838E8212046F12FC
:1000C0000068D082D083A3A380BB22120068900C6A
:1000D000F6E493FF740193FE4F603D7409120465CA
:1000E000C083C0828F838E8212046F7409120465EC
:1000F000120465D082D083A3A3E493FF740193FE1E
:10010000C083C0828F838E8212046F120068D082F7
:10011000D083A3A3A3A380B92212006812005E12A9
:10012000004C08FF12004CFE8F838E82E0F5F0C475
:10013000540F120847120465E5F0540F12084712D5
:1001400004651200682212006812005E12004C085A
:10015000FF12004CFE0812005E12004CFD8F838ED1
:1001600082EDF01200682212006812005E12004C4C
:10017000FF740912046531F11200687E007D1031B0
:10018000B5318D120068EE2410FEDDF3228F838ED0
:10019000827C10E0F5F0C4540F120847120465E5A4
:1001A000F0540F12084712046574201204651204FB
:1001B00065A3DCDF22EFC4540F120847120465EF79
:1001C000540F120847120465EEC4540F1208471268
:1001D0000465EE540F12084712046574201204657A
:1001E0001204651204651204652290004412046F23
:1001F000227CFF7B100C7430120465EC540F120843
:100200004712046574201204657420120465DBE54E
:100210002212006812005E12004CFE0812004CFF11
:100220000812005E12004CFD0812005E12004CFC29
:100230001205E92212006812005E12004CFE08123C
:10024000004CFF0812005E12004CFC0812004CFD2E
:100250000812005E12004CFB1205F3221200681215
:10026000005E12004CFE0812004CFFC007C00622C0
:10027000221200687F0112007331F11200687F08BA
:1002800078007E10E8F5F0C4540F12084712046598
:10029000E5F0540F120847120465C0077F011200F1
:1002A00073D007E6F5F0C4540F120847120465E551
:1002B000F0540F12084712046574201204651204EA
:1002C0006508DEDF120068DFB922120068900D0EAB
:1002D000E58071A77F01120073900D33E59071A73F
:1002E000900D407F01120073E5A071A77F011200FD
:1002F00073900D46E5B071A77F011200731200687C
:10030000900D14E58771A77F01120073900D4CE5E5
:10031000D071A77F01120073900D49E5B871A77FD6
:1003200001120073900D43E5A871A77F01120073BD
:10033000120068900D19E58871A77F011200739073
:100340000D1EE58971A77F01120073900D23E58AC8
:1003500071A77F01120073900D27E58B71A77F01B4
:10036000120073900D2BE58C71A77F011200739022
:100370000D2FE58D71A7120068900D36E59871A7D5
:100380007F01120073900D3BE59971A712006890F0
:100390000D5071A77F01120073900D54E5F071A705
:1003A00012006812006822C0E012046F740912047F
:1003B00065D0E0120857C0E0E5F0120465D0E01205
:1003C00004652212006812005EE6B4704F08E60869
:1003D000B4300A12005E12004CF5808041B4310A3C
:1003E00012005E12004CF5908034B4320A12005EA6
:1003F00012004CF5A08027B4330A12005E12004CA4
:10040000F5B0801AB4631508E6B46F1008E6B46E50
:100410000B0812005E12004CF5878002D322C32223
:1004200053890F438920758DFF438780759850D27B
:100430008E7400900100F0900101F022900100E024
:10044000F5F0900101E0B5F00280F7900000E5F0D2
:10045000258250020583F582E0C0E0E5F0049001BA
:1004600000F0D0E022C299F5993099FDC29922E4BA
:100470009360059165A380F722913CF5F0601264CA
:100480000A600EE5F0640D6008E5F0F0A391658068
:10049000E87400F022C082C083913CF8C3940A60E3
:1004A00046E8C3940D6040E8C39408600EE8C39426
:1004B0007F6008E8F0A3E8916580DEA881E6C39537
:1004C00083700CE58114F8E6C39582700280CAE55A
:1004D0008214F582B4FF021583740891657420912B
:1004E000657408916580B27400F0740A9165740DAA
:1004F0009165D083D08222C0E0C0F0C0D0C082C05D
:1005000083E8C0E030981F10991CC298E599F5F077
:10051000900101E0F804F0900000E8258250020507
:1005200083F582E5F0F0D0E0F8D083D082D0D0D04F
:10053000F0D0E03290000022900101E0F5F090014F
:1005400000E0C395F022E493F5F0E6B5F00860040E
:1005500008A380F2E422740122E493F5F0E6B5F0FA
:100560000608A3DAF4E4227401228E838F82E493D6
:10057000C39D7004DCF880067E007F00D322AE832A
:10058000AF82C3228E838F82E4E0600DC39D70042E
:10059000DCF680057E007F0022AE83AF82228E8350
:1005A0008F82E493F5F0A3AE83AF828C838D82E0DB
:1005B000C395F0700DDBEBA3AC83AD828E838F828D
:1005C000800840037F01227FFF227F00228E838FDD
:1005D00082E493F5F0A3AE83AF828C838D82E5F045
:1005E000F0A3AC83AD82DBE5228E838F82ECF0A397
:1005F000DDFB228E838F82E0A3AE83AF828C838D5E
:1006000082F0A3AC83AD82DBEA2290061112046F64
:10061000225F5F5F5F5F2F5C5C5C5C5C5C5C5C5C72
:100620005C5C5C5F5F5F5F2F5C5C5C5C5C5C5C5C2B
:100630005C5C5C5C5F205F5F5F5F5F5F2F5C5C5C4E
:100640005C5C5C5F20202020202020200A0D205FA1
:100650005F5F2F5C5C5C2F2F2F2F2F2F2F2F2F2FC3
:100660005F5F5F5F5C2F5C5C5C2F2F2F2F2F2F2F26
:100670002F2F2F2F5F5F205F5F2F5C5C5C5C5C5CCB
:100680005C5F202020202020200A0D20205F5F2F8B
:100690005C5C5C5F5F5F5F5F5F5F5F5F5F5F5F5F73
:1006A0005F5F5C2F5C5C5C5F5F5F5F5F5F5F5F5F96
:1006B0005F5F5F5F205F5C2F2F2F2F2F5C5C5C5F85
:1006C0002020202020200A0D2020205F5C2F5C5C51
:1006D0005C5F5F5F5F2F5C5C5C5C5C5C5C5F5F5F72
:1006E0005C2F5C5C5C5C5C5C5C5C5C5C5C5C5F5F71
:1006F0005F5F5F5F5F5F5F5F5C2F5C5C5C5F2020C4
:100700002020200A0D202020205F5C2F5C5C5C5F95
:100710005F5F5C2F2F2F2F2F5C5C5C5F5F5F5C2F18
:100720002F2F2F2F2F2F2F2F2F2F2F5C5C5C5F5FF2
:100730005F5F5F5F5F5F5C2F5C5C5C5F2020202001
:100740000A0D20202020205F5C2F5C5C5C5F5F5FD7
:100750005F5F5F5F5C2F5C5C5C5F5F5F5F5F5F5FE5
:100760005F5F5F5F5F5F5F5C2F2F5C5C5C5F5F5F05
:100770005F5F5F5F5C2F5C5C5C5F2020200A0D2068
:1007800020202020205F5C2F5C5C5C5F5F5F5F5FF0
:100790005F5F5C2F5C5C5C5F5F5F2F5C5C5C5F5FDE
:1007A0005F5F5F5F5F5F5C2F5C5C5C5F5F5F5F5F95
:1007B0005F5F5C2F5C5C5C5F20200A0D20202020A6
:1007C0002020205F5C2F2F5C5C5C5C5C5C5C5C5C74
:1007D0005C5C5C2F5F5F5F5C2F2F5C5C5C5C5C5CD7
:1007E0005C5C5C5C5C5C5C2F5F5F5F5F5F5F5F5F5E
:1007F0005C2F5C5C5C5F200A0D20202020202020E4
:10080000205F5F5C2F2F2F2F2F2F2F2F2F2F2F2F7A
:100810005F5F5F5F5F5F5C2F2F2F2F2F2F2F2F2F9B
:100820002F2F2F2F5F5F5F5F5F5F5F5F5F5F5C2FCB
:100830002F2F5F2000FAC39430F9C3940A5002E9C5
:1008400022EA54DF943722C3FA940A4006EA243796
:10085000442022EA243022FFC4540F1147F5F0EF60
:10086000540F114722090909436F7079726967684B
:100870007420323032352047696E6F204D616C70C4
:100880006172746964610A0D000A0D006735313EBA
:10089000200068656C703A00646973706C617973EC
:1008A000206C697374206F6620617661696C616287
:1008B0006C6520636F6D6D616E64732E006C733AAE
:1008C00000646973706C61797320617661696C6131
:1008D000626C65206170706C69636174696F6E73BE
:1008E0002E007065656B3A006578616D696E6520F4
:1008F000612073696E676C65206D656D6F7279201C
:1009000063656C6C2E0065782E207065656B2031F8
:1009100062326300706F6B653A006D6F646966796F
:1009200020612073696E676C65206D656D6F7279EB
:100930002063656C6C2E0065782E20706F6B6520CF
:10094000316232632035350064756D703A00646938
:1009500073706C617973206120323536206D656D5E
:100960006F727920626C6F636B2E0065782E206445
:10097000756D7020313200636C6561723A00636C92
:100980006561722073637265656E20616E642068B4
:100990006F6D65732074686520637572736F722E56
:1009A0000072657365743A00706572666F726D20CF
:1009B0006120736F66742D7265736574206F662095
:1009C0007468652073797374656D2E0066696C6C4C
:1009D0003A00696E697469616C697A657320612097
:1009E0006D656D6F727920626C6F636B20776974CF
:1009F0006820612073706563696669632062797439
:100A0000652E0065782E2066696C6C203161623736
:100A100020666620316100636F70793A00636F7001
:100A2000696573206120626C6F636B206F66206460
:100A30006174612066726F6D206F6E65206D656DEB
:100A40006F7279206C6F636174696F6E20746F20B0
:100A5000616E6F746865722E0065782E20636F700A
:100A6000792032643466203833626420613500674F
:100A70006F746F3A006A756D707320746F20612017
:100A80006C6F636174696F6E20696E2070726F673E
:100A900072616D206D656D6F727920746F2065785D
:100AA000656375746520636F64652E0065782E201C
:100AB000676F746F20386165330063616C6C3A0056
:100AC00063616C6C73206120737562726F757469F9
:100AD0006E6520746F206265206578656375746546
:100AE000642E0065782E2063616C6C20663433645C
:100AF000006972616D3A00646973706C617973208A
:100B000074686520636F6E74656E7473206F662001
:100B100074686520696E7465726E616C206D656DB8
:100B20006F727920617265612E007366723A00649B
:100B30006973706C61797320746865207370656384
:100B400069616C2066756E6374696F6E207265678B
:100B50006973746572732E007772697465006D6FC6
:100B60006469667920616E207366722072656769B8
:100B7000737465722C0065782E2077726974652015
:100B80007031203535000892089808BD08C108E288
:100B900008E80914091A0948094E0977097E09A1CC
:100BA00009A809CC09D20A170A1D0A6F0A750ABAE0
:100BB0000AC00AF10AF70B2A0B2F0B580B5E000034
:100BC000000068656C70006C73007065656B007088
:100BD0006F6B650064756D7000636C6561720072A7
:100BE000657365740066696C6C00636F707900678B
:100BF0006F746F006972616D00736672007772695D
:100C0000746500556E6B6E6F776E20436F6D6D610E
:100C10006E640054686520717569636B2062726F41
:100C2000776E20666F78206A756D7073206F7665B9
:100C30007220746865206C617A7920646F672E0079
:100C40004D656D6F72792074657374206661696C8F
:100C500065642E004D656D6F727920746573742024
:100C60007375636365656465642E006C636400413D
:100C70006C6C6F77732074657374696E67206F6630
:100C800020746865206C63642073637265656E20F0
:100C9000696E2050312C2050330070776D00416C0C
:100CA0006C6F77732074657374696E67206F66204C
:100CB0007468652070776D206170706C6963617411
:100CC000696F6E2E00767431303200416C6C6F7734
:100CD000732074657374696E672074686520565458
:100CE000313032206573636170652073657175659D
:100CF0006E6365732E000C6B0C6F00300C9A0C9EAB
:100D000000310CC50CCB0032000000000000503058
:100D10000053500050434F4E0054434F4E00544D2B
:100D20004F4400544C3000544C310054483000546F
:100D300048310050310053434F4E00534255460056
:100D4000503200494500503300495000505357007D
:060D500041434300420094
:04000000020D563265
:01000B0032C2
:0100130032BA
:01001B0032B2
:030023000204F7DD
:100D5600852F81120420D2ACD2AF1201EA9006117F
:100D660012046F12006890086512046F12006890F2
:100D7600088C12046F90010212047912006880EF49
:100D860080FE90010212005E900BC27A0412055991
:100D9600B4000512007F80D790010212005E900B0E
:100DA600C77A02120559B400051200CB80C1900122
:100DB6000212005E900BCA7A04120559B40005129D
:100DC600011980AB90010212005E900BCF7A0412DB
:100DD6000559B40006120146020D75900102120073
:100DE6005E900BD47A04120559B40006120167020C
:100DF6000D7590010212005E900BDF7A05120559FF
:100E0600B40003020D5690010212005E900BD91237
:100E16000559B400061201EA020D7590010212008E
:100E26005E900BE57A04120559B40006120211020F
:100E36000D7590010212005E900BEA7A04120559B4
:100E4600B40006120234020D7590010212005E9083
:100E56000BEF7A04120559B4000612025C020D75F6
:100E660090010212005E900BF47A04120559B40048
:100E760006120271020D7590010212005E900BF9C6
:100E86007A03120559B400061202CA020D759001C2
:100E96000212005E900BFD7A05120559B400061287
:100EA60003C3020D75120068900102E66009900CFA
:0C0EB6000312046F120068020D7580FE2C
:00000001FF
