:1000300002067002063F02067802068E020684025D
:1000400006E40201B51206202202FFFC2274009091
:100050000100F090000012003922AF83AE829000C0
:10006000001200A11200BAE0601AB420028015C08C
:1000700083C0828F838E82F0A3AF83AE82D082D082
:1000800083A380E312008F8F838E827400F022C0DE
:1000900083C082C3E5829400900100F0D082D083B7
:1000A00022C083C082900100E0D082D0832582C02C
:1000B000E0E5833400F583D08222E06014B420119F
:1000C000A3C083C082900100E004F0D082D083807E
:1000D000E922AF83AE821200E8A3A3A3E493F974EC
:1000E0000193C0E0C0012222900167E49364FF60A5
:1000F0002DA983A882A3EFFBEEFAE493FD7401938C
:10010000F5828D83120732EBFFEAFE400B8983886C
:1001100082A3A3A3A3A380D3D38983888222C322EB
:100120002268656C70007065656B00706F6B6500B0
:10013000726573657400636C6561720064756D70DF
:10014000006C6F6164006C730066696C6C00636FB7
:10015000707900676F746F006972616D0073667209
:1001600000777269746500000121024501012602D1
:10017000E302012B031903013002DF04013605B14C
:1001800005013C0354060141061F07014602910880
:10019000014903DB09014E040E0A0153044A0B0115
:1001A00058045F0C015D04B80D016105B5FF000046
:1001B00006122222229001E212003622229001EA47
:1001C000120036229001EE120036229001EA12004F
:1001D00036221B5B41001B5B42001B5B43001B5B29
:1001E00044001B5B481B5B324A00082008001B20B0
:1001F00000E0120A38F5F0A3E0120A38C454F045C2
:10020000F0C4221201F1C0E0A31201F1D0F02222C9
:100210002222E6120A3808F5F0E6120A38C454F031
:1002200045F0C422E06006B42003A380F722740ADC
:10023000120030740D120030227409120030227442
:10024000201200302212022E900D48E493FF740118
:1002500093FE4F603B7409120030C083C0828F83CD
:100260008E821200367409120030120030D082D013
:1002700083A3A3E493FF740193FEC083C0828F83A2
:100280008E8212003612022ED082D083A3A380BBAE
:100290002212022E900EB4E493FF740193FE4F607D
:1002A0003D7409120030C083C0828F838E82120099
:1002B000367409120030120030D082D083A3A3E438
:1002C00093FF740193FEC083C0828F838E821200DD
:1002D0003612022ED082D083A3A3A3A380B9221208
:1002E00000492212022E90010112005A90010112BF
:1002F000003C743A12003074201200309001011258
:10030000020385F083F582E0120A5AF8E5F0120044
:1003100030E812003012022E2212022E9001011239
:10032000005A90010612005A900101120203C0E027
:10033000C0F09001061201F1D083D082F09001014B
:1003400012003C743A120030742012003090010602
:1003500012003C2212022E90010112005A9001015B
:1003600012020385F083F58212023971BB12022E4C
:100370007910E583120A5AC5F0120030C5F0120058
:1003800030E582120A5AC5F0120030C5F012003072
:1003900012023F12023F12023F12023F7810E01297
:1003A0000A5AC5F0120030C5F012003012023F1296
:1003B000023FA3D8E912022ED9B8227CFF7B100C91
:1003C0007430120030EC540F120A4A1200307420BC
:1003D0001200307420120030DBE52212022E900150
:1003E0000112005A90010612005A9001061201F102
:1003F000C0E090010612005A9001061201F1FCD0F3
:1004000005900101120203AEF0FF1207EC22120266
:100410002E90010112005A900101120203C0F0C097
:10042000E090010112005A900101120203C0F0C0D5
:10043000E090010612005A9001061201F1FBD0056E
:10044000D004D007D0061207F62212022E90010126
:1004500012005A900101120203C0E0C0F0222212E1
:10046000022E7F0112023971BB12022E7F08780022
:100470007E10E8F5F0C4540F120A4A120030E5F07D
:10048000540F120A4A120030C0077F01120239D0FD
:1004900007E6F5F0C4540F120A4A120030E5F05492
:1004A0000F120A4A12003074201200301200300875
:1004B000DEDF12022EDFB92212022E900ECCE58072
:1004C000B1957F01120239900EF1E590B195900E31
:1004D000FE7F01120239E5A0B1957F011202399029
:1004E0000F04E5B0B1957F0112023912022E900E71
:1004F000D2E587B1957F01120239900F0AE5D0B19C
:10050000957F01120239900F07E5B8B1957F01126E
:100510000239900F01E5A8B1957F0112023912024C
:100520002E900ED7E588B1957F01120239900EDC2E
:10053000E589B1957F01120239900EE1E58AB19506
:100540007F01120239900EE5E58BB1957F01120211
:1005500039900EE9E58CB1957F01120239900EEDCC
:10056000E58DB19512022E900EF4E598B1957F01BC
:10057000120239900EF9E599B19512022E900F0EE4
:10058000B1957F01120239900F12E5F0B195120278
:100590002E12022E22C0E01200367409120030D052
:1005A000E0120A5AC0E0E5F0120030D0E01200304C
:1005B000221200422212022E120224E6B4704F08C8
:1005C000E608B4300A120224120212F5808041B407
:1005D000310A120224120212F5908034B4320A1247
:1005E0000224120212F5A08027B4330A1202241248
:1005F0000212F5B0801AB4631508E6B46F1008E66D
:10060000B46E0B08120224120212F5878002D32264
:10061000C32212022E900DC112003612022E222287
:1006200053890F438920758DFA758DFD4387807539
:100630009850D28E7400900209F090020AF022C005
:1006400082C083900209E0F5F090020AE0B5F00262
:1006500080F7900109E5F0258250020583F582E0DC
:10066000C0E0E5F004900209F0D0E0D083D082220F
:10067000F5993099FDC299227400936006120670B4
:10068000A380F522E06006120670A380F722AF83F4
:10069000AE8212063FF5F06047640D6043E5F064FA
:1006A0000A603DE5F0640870028006E5F0647F7042
:1006B00026E583B50707E582B5060280D5E582C346
:1006C0009401F582E5839400F583C082C083120112
:1006D000CBD083D08280BBE5F0F0A312067080B24D
:1006E0007400F022C0E0C0F0C0D0C082C083E8C077
:1006F000E0209802801CC298E599F5F090020AE08B
:10070000F804F0900109E8258250020583F582E59E
:10071000F0F0D0E0F8D083D082D0D0D0F0D0E0326A
:100720009001092290020AE0F5F0900209E0C395D9
:10073000F022E493F5F0C082C0838F838E82E0655F
:10074000F07010E5F0600FA3AF83AE82D083D0824B
:10075000A380DFC38001D3D083D08222E493F5F05D
:10076000E6B5F00608A3DAF4E4227401228E838F42
:1007700082E493C39D7004DCF880067E007F00D382
:1007800022AE83AF82C3228E838F82E4E0600DC3EA
:100790009D7004DCF680057E007F0022AE83AF8270
:1007A000228E838F82E493F5F0A3AE83AF828C8395
:1007B0008D82E0C395F0700DDBEBA3AC83AD828E30
:1007C000838F82800840037F01227FFF227F0022E7
:1007D0008E838F82E493F5F0A3AE83AF828C838DFA
:1007E00082E5F0F0A3AC83AD82DBE5228E838F82BD
:1007F000ECF0A3DDFB228E838F82E0A3AE83AF8279
:100800008C838D82F0A3AC83AD82DBEA2290081446
:10081000120036225F5F5F5F5F2F5C5C5C5C5C5C3C
:100820005C5C5C5C5C5C5F5F5F5F2F5C5C5C5C5C29
:100830005C5C5C5C5C5C5C5F205F5F5F5F5F5F2F4C
:100840005C5C5C5C5C5C5F20202020202020200A17
:100850000D205F5F5F2F5C5C5C2F2F2F2F2F2F2FC2
:100860002F2F2F5F5F5F5F5C2F5C5C5C2F2F2F2F24
:100870002F2F2F2F2F2F2F5F5F205F5F2F5C5C5C50
:100880005C5C5C5C5F202020202020200A0D202062
:100890005F5F2F5C5C5C5F5F5F5F5F5F5F5F5F5FA1
:1008A0005F5F5F5F5F5C2F5C5C5C5F5F5F5F5F5F94
:1008B0005F5F5F5F5F5F5F205F5C2F2F2F2F2F5C7D
:1008C0005C5C5F2020202020200A0D2020205F5C1F
:1008D0002F5C5C5C5F5F5F5F2F5C5C5C5C5C5C5CA6
:1008E0005F5F5F5C2F5C5C5C5C5C5C5C5C5C5C5C6C
:1008F0005C5F5F5F5F5F5F5F5F5F5F5C2F5C5C5C47
:100900005F20202020200A0D202020205F5C2F5C0B
:100910005C5C5F5F5F5C2F2F2F2F2F5C5C5C5F5FE9
:100920005F5C2F2F2F2F2F2F2F2F2F2F2F2F5C5C20
:100930005C5F5F5F5F5F5F5F5F5C2F5C5C5C5F2045
:100940002020200A0D20202020205F5C2F5C5C5C92
:100950005F5F5F5F5F5F5F5C2F5C5C5C5F5F5F5FE3
:100960005F5F5F5F5F5F5F5F5F5F5C2F2F5C5C5C03
:100970005F5F5F5F5F5F5F5C2F5C5C5C5F20202080
:100980000A0D2020202020205F5C2F5C5C5C5F5FD4
:100990005F5F5F5F5F5C2F5C5C5C5F5F5F2F5C5CD9
:1009A0005C5F5F5F5F5F5F5F5F5C2F5C5C5C5F5F96
:1009B0005F5F5F5F5F5C2F5C5C5C5F20200A0D20E7
:1009C0002020202020205F5C2F2F5C5C5C5C5C5C26
:1009D0005C5C5C5C5C5C2F5F5F5F5C2F2F5C5C5CD5
:1009E0005C5C5C5C5C5C5C5C5C5C2F5F5F5F5F5F65
:1009F0005F5F5F5C2F5C5C5C5F200A0D2020202025
:100A0000202020205F5F5C2F2F2F2F2F2F2F2F2FA5
:100A10002F2F2F5F5F5F5F5F5F5C2F2F2F2F2F2F99
:100A20002F2F2F2F2F2F2F5F5F5F5F5F5F5F5F5F26
:100A30005F5C2F2F2F5F2000FAC39430F9C3940A14
:100A40005002E922EA54DF943722C3FA940A40069E
:100A5000EA2437442022EA243022FFC4540F120A29
:100A60004AF5F0EF540F120A4A22090909436F7040
:100A700079726967687420323032352047696E6F49
:100A8000204D616C706172746964610A0D000A0D19
:100A9000006735313E200068656C700064697370D2
:100AA0006C617973206C697374206F662061766164
:100AB000696C61626C6520636F6D6D616E64732E2D
:100AC000006C7300646973706C6179732061766186
:100AD000696C61626C65206170706C6963617469D6
:100AE0006F6E732E007065656B006578616D696E61
:100AF0006520612073696E676C65206D656D6F722E
:100B0000792063656C6C2E0065782E207065656BAE
:100B1000203162326300706F6B65006D6F646966CF
:100B20007920612073696E676C65206D656D6F72E9
:100B3000792063656C6C2E0065782E20706F6B6574
:100B400020316232632035350064756D7000646950
:100B500073706C617973206120323536206D656D5C
:100B60006F727920626C6F636B2E0065782E206443
:100B7000756D7020313200636C65617200636C6565
:100B800061722073637265656E20616E6420686FA8
:100B90006D65732074686520637572736F722E00C3
:100BA000726573657400706572666F726D20612086
:100BB000736F66742D7265736574206F6620746838
:100BC000652073797374656D2E0066696C6C0069BD
:100BD0006E697469616C697A65732061206D656DF9
:100BE0006F727920626C6F636B2077697468206123
:100BF00020737065636966696320627974652E008D
:100C000065782E2066696C6C2031616237206666DB
:100C100020316100636F707900636F7069657320C4
:100C20006120626C6F636B206F6620646174612069
:100C300066726F6D206F6E65206D656D6F727920C5
:100C40006C6F636174696F6E20746F20616E6F7476
:100C50006865722E0065782E20636F70792032648B
:100C60003466203833626420613500676F746F002A
:100C70006A756D707320746F2061206C6F6361748E
:100C8000696F6E20696E2070726F6772616D206D82
:100C9000656D6F727920746F206578656375746512
:100CA00020636F64652E0065782E20676F746F2057
:100CB00038616533006972616D00646973706C61DD
:100CC00079732074686520636F6E74656E74732029
:100CD0006F662074686520696E7465726E616C2041
:100CE0006D656D6F727920617265612E0073667239
:100CF00000646973706C6179732074686520737027
:100D0000656369616C2066756E6374696F6E2072CD
:100D100065676973746572732E0077726974650014
:100D20006D6F6469667920616E20736672207265EA
:100D30006769737465722C0065782E207772697408
:100D400065207031203535000A970A9C0AC10AC413
:100D50000AE50AEA0B160B1B0B490B4E0B770B7DB2
:100D60000BA00BA60BCA0BCF0C140C190C6B0C7040
:100D70000CB50CBA0CED0CF10D1A0D2000000000A2
:100D800068656C70006C73007065656B00706F6BEC
:100D9000650064756D7000636C65617200726573E7
:100DA00065740066696C6C00636F707900676F74BE
:100DB0006F006972616D00736672007772697465A5
:100DC00000556E6B6E6F776E20436F6D6D616E6454
:100DD0000054686520717569636B2062726F776E6D
:100DE00020666F78206A756D7073206F766572204B
:100DF000746865206C617A7920646F672E004D6598
:100E00006D6F72792074657374206661696C6564B6
:100E10002E004D656D6F7279207465737420737543
:100E2000636365656465642E006C636400416C6C8B
:100E30006F77732074657374696E67206F662074B2
:100E40006865206C63642073637265656E20696EEB
:100E50002050312C2050330070776D00416C6C6F46
:100E600077732074657374696E67206F6620746889
:100E7000652070776D206170706C69636174696F53
:100E80006E2E00767431303200416C6C6F777320B7
:100E900074657374696E67207468652056543130C8
:100EA00032206573636170652073657175656E636B
:100EB00065732E000E290E2D01B20E580E5C01B383
:100EC0000E830E8901B40000000000005030005372
:100ED000500050434F4E0054434F4E00544D4F442A
:100EE00000544C3000544C310054483000544831C8
:100EF0000050310053434F4E00534255460050328C
:100F000000494500503300495000505357004143B9
:040F10004300420058
:04000000020F1432A5
:01000B0032C2
:0100130032BA
:01001B0032B2
:0300230002003F99
:100F140075812F120045D2ACD2AF12004290081452
:100F240012003612022E900A6A12003612022E7431
:100F3400FF90020BF0A3F0900A9112003612004DBC
:100F440090020B12005A90020B1200D212022E8051
:010F5400E6B6
:00000001FF
