:0400000002002632A2
:01000B0032C2
:0100130032BA
:01001B0032B2
:100023000200D1852F81120054D2ACD2AF90011FB0
:100033001200A19001021200B59001021200AC124D
:10004300004980E980FE740A120099740D12009928
:100053002253890F438920758DFF438780759850FC
:10006300D28E7400900100F0900101F02290010003
:10007300E0F5F0900101E0B5F00280F7900000E5B3
:10008300F0258250020583F582E0C0E0E5F004909C
:100093000100F0D0E0223099FDC299F59922E500E4
:1000A3009360051199A380F622E060051199A3805E
:1000B300F8221170F5F06012640A600EE5F0640D29
:1000C3006008E5F0F0A3119980E87400F022C0E025
:1000D300C0F0C0D0C082C083E8C0E0209802801C7A
:1000E300C298E599F5F0900101E0F804F090000062
:1000F300E8258250020583F582E5F0F0D0E0F8D0E0
:1001030083D082D0D0D0F0D0E03290000022900192
:1001130001E0F5F0900100E0C395F022756172747F
:0801230020746573743E200096
:00000001FF
