:0400000002002632A2
:01000B0032C2
:0100130032BA
:01001B0032B2
:100023000200DE75812F120056D2ACD2AF90012CA4
:1000330011AE9001021200C212004B900102120095
:10004300B912004B80E780FE740A1200A6740D12E9
:1000530000A62253890F438920758DFA758DFD43C0
:100063008780759850D28E7400900100F090010142
:10007300F022C082C083900100E0F5F0900101E01E
:10008300B5F00280F7900000E5F025825002058369
:10009300F582E0C0E0E5F004900100F0D0E0D08309
:1000A300D08222F5993099FDC2992274009360059C
:1000B30011A6A380F622E0600511A6A380F8221101
:1000C30075F5F06012640D600EE5F0640A6008E5F2
:1000D300F0F0A311A680E87400F022C0E0C0F0C0E5
:1000E300D0C082C083E8C0E0209802801CC298E59B
:1000F30099F5F0900101E0F804F0900000E8258202
:1001030050020583F582E5F0F0D0E0F8D083D08289
:10011300D0D0D0F0D0E03290000022900101E0F581
:10012300F0900100E0C395F022756172742074654C
:0501330073743E200082
:00000001FF
