:0600000002002B020003C8
:03000B0002000BE5
:03001300020013D5
:03001B0002001BC5
:03002300020023B5
:10002B0011529000C1118790009111879000C1115E
:10003B00879000C111879000C4118731DD9000CDEE
:10004B00118780F280FE22758920758DFDD28E7509
:10005B009850223098FDC298E59922115EF0B40DAC
:10006B00067400F0020075A380F122F5993099FD1A
:10007B00C29922E060051176A380F822E493600513
:10008B001176A380F72247424F4F54353120762EFD
:10009B00312E300D0A436F707972696768742032A4
:1000AB003032352047696E6F204D616C7061727410
:1000BB006964610D0A000D0A0067626F6F74353158
:1000CB003E0009436F6D6D616E64730D0A096865BF
:1000DB006C703A2073686F7773207468697320684B
:1000EB00656C702E0D0A094170706C6963617469DF
:1000FB006F6E20313A206465736372697074696F37
:10010B006E206F66206170706C69636174696F6ECD
:10011B0020312E0D0A094170706C69636174696F2F
:10012B006E20323A206465736372697074696F6E06
:10013B00206F66206170706C69636174696F6E20EB
:10014B00322E0D0A094170706C69636174696F6EB0
:10015B0020333A206465736372697074696F6E2023
:10016B006F66206170706C69636174696F6E2033A8
:10017B002E0D0A094170706C69636174696F6E2092
:10018B00343A206465736372697074696F6E206FA3
:10019B0066206170706C69636174696F6E20342EB8
:1001AB000D0A094170706C69636174696F6E20355B
:1001BB003A206465736372697074696F6E206F6641
:1001CB00206170706C69636174696F6E20352E0DE0
:1001DB000A00900000116631E7600022900000E0F9
:1001EB00B46811A3E0B4650CA3E0B46C07A3E0B44E
:0701FB0070027401E500220F
:00000001FF
