:06000000020030020003C3
:03000B0002000BE5
:03001300020013D5
:03001B0002001BC5
:03002300020023B5
:1002000047424F4F54353120762E312E300D0A4360
:100210006F707972696768742032303235204769AF
:100220006E6F204D616C706172746964610D0A00BB
:100230000D0A0067626F6F7435313E0009436F6DC0
:100240006D616E64730D0A0968656C703A2073689D
:100250006F777320746869732068656C702E0D0A5F
:10026000096C733A206C69737420617661696C6102
:10027000626C65206170706C69636174696F6E7324
:100280002E0D0A097065656B3A20616C6C6F77738F
:1002900020746F2076696577206D656D6F72792E99
:1002A0000D0A09706F6B653A20616C6C6F77732073
:1002B000746F206D6F64696679206D656D6F7279FA
:1002C0002E0D0A00094170706C69636174696F6E6C
:1002D00020313A206465736372697074696F6E20AF
:1002E0006F66206170706C69636174696F6E203134
:1002F0002E0D0A094170706C69636174696F6E201C
:10030000323A206465736372697074696F6E206F2E
:1003100066206170706C69636174696F6E20322E43
:100320000D0A094170706C69636174696F6E2033E6
:100330003A206465736372697074696F6E206F66CA
:10034000206170706C69636174696F6E20332E0D6B
:100350000A094170706C69636174696F6E20343A88
:10036000206465736372697074696F6E206F6620B4
:100370006170706C69636174696F6E20342E0D0A50
:10038000094170706C69636174696F6E20353A2041
:100390006465736372697074696F6E206F66206143
:1003A00070706C69636174696F6E20352E0D0A0080
:1003B00070726F636573732068656C7020636F6D16
:1003C0006D616E642E0D0A0070726F636573732029
:1003D0006C7320636F6D6D616E642E0D0A00707218
:1003E0006F63657373207065656B20636F6D6D61FE
:1003F0006E642E0D0A0070726F6365737320706FE8
:100400006B6520636F6D6D616E642E0D0A00696E01
:1004100076616C696420636F6D6D616E642E0D0A88
:0104200000DB
:10003000119190023011CF90020011CF9002301137
:10004000CF90023011CF90023311CF11D9B40107F4
:1000500090023C11CF80EFB40204117080E8B40428
:1000600004117680E1B40804117C80DA80D880FE27
:100070009002C411CF22900000118A229003F61141
:10008000CF22E4F0A304B400FA22E060033148E098
:1000900022758920758DFDD28E759850223098FD7D
:1000A000C298E59922119DF0B40D067400F0A3806A
:1000B000F4B40A067400F00200BDA380E822F599AA
:1000C0003099FDC29922E0600511BEA380F822E4B8
:1000D00093600511BEA380F72275F0009000001117
:1000E000A5900000E0605EB42003A380F7E0B46850
:1000F00015A3E0B4654CA3E0B46C47A3E0B4704230
:1001000075F001020145E0B46C0BA3E0B4733375E4
:10011000F002020145E0B47029A3E0B46510A3E049
:10012000B4651FA3E0B46B1A75F004020145E0B496
:100130006F10A3E0B46B0BA3E0B4650675F0080282
:10014000014575F000E5F022E0B42003A380F92218
:00000001FF
