:06000000020030020003C3
:03000B0002000BE5
:03001300020013D5
:03001B0002001BC5
:03002300020023B5
:1002000047424F4F54353120762E312E300D0A4360
:100210006F707972696768742032303235204769AF
:100220006E6F204D616C706172746964610D0A00BB
:100230000D0A0067626F6F7435313E0009436F6DC0
:100240006D616E64730D0A0968656C703A2073689D
:100250006F777320746869732068656C702E0D0A5F
:10026000094170706C69636174696F6E20313A2066
:100270006465736372697074696F6E206F66206164
:1002800070706C69636174696F6E20312E0D0A099C
:100290004170706C69636174696F6E20323A2064DA
:1002A00065736372697074696F6E206F6620617028
:1002B000706C69636174696F6E20322E0D0A09419A
:1002C00070706C69636174696F6E20333A20646585
:1002D000736372697074696F6E206F6620617070ED
:1002E0006C69636174696F6E20332E0D0A09417069
:1002F000706C69636174696F6E20343A2064657351
:100300006372697074696F6E206F66206170706CC3
:1003100069636174696F6E20342E0D0A0941707033
:100320006C69636174696F6E20353A20646573632C
:1003300072697074696F6E206F66206170706C698D
:10034000636174696F6E20352E0D0A0070726F63E1
:100350006573732068656C7020636F6D6D616E648A
:100360002E0070726F63657373206C7320636F6D02
:100370006D616E642E0070726F63657373207065BB
:10038000656B20636F6D6D616E642E0070726F63BC
:1003900065737320706F6B6520636F6D6D616E6444
:1003A0002E00696E76616C696420636F6D6D616E9D
:0303B000642E00B8
:10003000117B90023011B090020011B0900230118B
:10004000B090023011B090023311B011BAB4010770
:1000500090023C11B080EFB4020790036211B080AF
:10006000E5B4040790037611B080DBB4080990036F
:100070008C11B080D180FE80CD80FE758920758D79
:10008000FDD28E759850223098FDC298E5992211C4
:1000900087F0B40D067400F002009EA380F122F5F3
:1000A000993099FDC29922E06005119FA380F82242
:1000B000E4936005119FA380F72275F00090000083
:1000C000118F900000E0605EB42003A380F7E0B4DD
:1000D0006815A3E0B4654CA3E0B46C47A3E0B4702A
:1000E0004275F001020126E0B46C0BA3E0B4733357
:1000F00075F002020126E0B47029A3E0B46510A3F4
:10010000E0B4651FA3E0B46B1A75F004020126E0A9
:10011000B46F10A3E0B46B0BA3E0B4650675F008F0
:1001200002012675F000E5F022E0B42003A380F977
:0101300022AC
:00000001FF
