:0400000002002E329A
:01000B0032C2
:0100130032BA
:03001B000215BA11
:0100230032AA
:03002B0002008F41
:1000870002008A12009780FE8582FF2285FF822266
:10009700020AC82275A800C28E740F55894420F53C
:1000A70089438780758DFFD28E759852758200229D
:1000B70010980280FB8599822210990280FB75991E
:1000C7000A10990280FB75990D2290182A75F08005
:1000D700120250C200C2011200B7AA82BA1B030261
:1000E70001D8BA3AF212040785820A120407AC82D1
:1000F7007D00ECFE250AF50B8C057C00C004C005CD
:10010700120407AA82D005D004EA250BF50B8A074B
:100117007800EF2CFCE83DFDC004C005120407AFD2
:1001270082D005D004EF250BF50B8C008D018802DA
:100137007B007880E4BF000104FF8A0C890D8B0ED9
:10014700E4F508F509AE0A7B00C3E5089EE5099BBF
:100157005052C004C005C007C000120407AA82D0CD
:1001670000D007D005D004EA250BF50BEF601E85FC
:100177000C82850D83850EF0EA1216C28C828D8360
:1001870088F01216EFFBB502028002D201050CE4DB
:10019700B50C02050D0CBC00010D0508E4B508A55A
:1001A700050980A1C007120407AA82D007EA250B18
:1001B700F50BEF601CE50B600DD20010990280FB78
:1001C7007599580200DE10990280FB75992E02007E
:1001D700DE30000B90183E75F08012025080173009
:1001E700010B90185075F080120250800990185F2B
:1001F70075F0801202503098031200B702023AAA33
:10020700827B00BB0800501674F82BFCE4347FFD9A
:10021700EB90008F93FE8C828D83F00B80E5907FAF
:10022700FAEAF0907FFDEAF0027FFC758200220275
:100237007FF822901F91E4F0A37420F022901867B2
:0902470075F080020250D2BB22C6
:03000300022003D5
:03000B0002200BC5
:03001300022013B5
:0300230002202395
:03002B0002202B85
:10170B008050308153508244504C83445048875012
:10171B00434F4E8854434F4E89544D4F448A544C3B
:10172B00308B544C318C5448308D5448319050315F
:10173B009853434F4E9953425546A05032A84945B2
:10174B00B05033B84950C85432434F4EC954324D40
:10175B004F44CA52434150324CCB52434150324812
:10176B00CC544C32CD544832D0505357E0414343C4
:10177B00E041F04280000088495430894945308A65
:10178B004954318B4945318C5452308D5446308EEF
:10179B005452318F5446319852499954499A524276
:1017AB00389B5442389C52454EA8455830A9455455
:1017BB0030AA455831AB455431AC4553AD45543245
:1017CB00AF4541B8505830B9505430BA505831BB6E
:1017DB00505431BC5053BD505432D050D14631D2FD
:1017EB004F56D3525330D4525331D54630D6414352
:1017FB00D74359C843505F524C32C9435F5432CA26
:10180B00545232CB4558454E32CC54434C4BCD52AF
:10181B00434C4BCE45584632CF544632FF00005313
:10182B00656E642066696C65206F72203C4573633E
:10183B003E0A000A436865636B73756D20657272AF
:10184B006F72210A000A5772697465206572726F94
:10185B0072210A000A446F6E652E0A00506F727473
:0D186B003A20383035322056312E310A0037
:10025000AA82AB83ACF08A828B838CF01216EFFDFE
:1002600024FF5028BD8000502310990280FB8A8211
:100270008B838CF01216EFFD8D99BD0A0810990240
:1002800080FB75990D0ABA00CD0B80CA2210990225
:1002900080FB75990D7A00BA4F00500B10990280BF
:1002A000FB7599200A80F010990280FB75990D2248
:1002B0007A00C0021200B7AB82D002BB08028012E3
:1002C000BB0A028028BB0D028023BB1602805002AD
:1002D000035DEA60DD9018FC75F080C002120250E8
:1002E000D0028A041AEC2421F8760080C5C00212DC
:1002F00000C0D002EA2421F87600EA6021901FC0F5
:10030000EAF07C00C3EA9C4015EC24A0F582E434BA
:100310001FF583EC2421F88605EDF00C80E622120F
:10032000028D901FC0E0FA90190075F080C0021293
:100330000250D0027C00C3EA9C50030202B2EC24BB
:1003400021F8EC24A0F582E4341FF583E0FDF610DB
:10035000990280FBEC2421F886990C80D9BA1F0001
:1003600050138A040AEC2421F8A60310990280FB9A
:100370008B990202B210990280FB7599070202B2B2
:10038000AA82C0021216DBE582D002600674DF5A30
:10039000FB80028A03EB24D0FA24F65004EA24F905
:1003A000FA8A8222AA8210990280FBEAC4540FFBC7
:1003B0009018E393F59910990280FB740F5A9018E6
:1003C000E393F59922AA82AB838B047D008C82C0D3
:1003D00002C0031203A4D003D0027B008A8202036E
:1003E000A4AA82AB83ACF0AD0FAE10ED4E60178ABD
:1003F000828B838CF0E5111216C2A3AA82AB831DF7
:10040000BDFFE81E80E5221200B7120380E582FAE4
:10041000C454F0FAC0021200B7D002C00212038026
:10042000AB82D002EB2AF582227A007B007C00BCF2
:10043000020040030204B0C002C003C0041200B7AF
:10044000AD82D004D003D00210990280FBE4BD201D
:100450000104FE60047F7880028D078F998D82C031
:1004600002C003C004C005C006121674E582D0069F
:10047000D005D004D003D0027019C202EE600FD2B2
:1004800003BB000C10990280FB7599788002C203AF
:100490008A8222EAC454F0FE8D82C004C006120390
:1004A00080AD82D006D004ED2EFA0C8C0302042F0E
:1004B000D203D2028A8222AA82AB83ACF07D00BD35
:1004C0000062C002C003C004C0051200C0D005D045
:1004D00004D003D00210990280FBAE428E9910998D
:1004E0000280FB75993ABE44028003BE49178A8296
:1004F000C002C003C004C0051203A4D005D004D0BC
:1005000003D00280178A828B83C002C003C004C05C
:10051000051203C5D005D004D003D0021099028083
:10052000FB75993A10990280FB7599208A828B831A
:100530008CF01216EFFEF582C002C003C004C005A5
:100540001203A4D005D004D003D00210990280FB7E
:1005500075992EC002C003C004C005120429AE82E2
:10056000D005D004D003D00220020330034830026B
:100570000A8A828B838CF0EE1216C210990280FBDD
:1005800075990810990280FB7599088A828B838C73
:10059000F01216EFFEA3AA82AB838E82C002C003C4
:1005A000C004C0051203A4D005D004D003D0020DAE
:1005B0005305070204BF0200C090190375F08012B2
:1005C00002503098FD12028DC29885998222858250
:1005D0004685834785F048754900E5437004E54446
:1005E00060028006754380E4F5447531007E007F2B
:1005F00000C3EE9543EF9544400122EE2546FDEF02
:100600003547FAAB488D828A838BF01216EFFA7465
:100610000F5EFB7C00BB0002800302068A10990279
:1006200080FBAC458C9910990280FB75993ABC44CB
:10063000028003BC491CAC46EEFD2CF582C002C012
:1006400003C006C0071203A4D007D006D003D0020F
:10065000801FAC46AD47EE2CF582EF3DF583C0021E
:10066000C003C006C0071203C5D007D006D003D010
:100670000290192975F080C002C003C006C007129D
:100680000250D007D006D003D0028A82C002C00335
:10069000C006C0071203A4D007D006D003D00210B2
:1006A000990280FBBB07047C2D80027C208C99EA98
:1006B00024DF500DBA7F005008EB2421F8A60280F9
:1006C00006EB2421F8762EBB0F5890192D75F0807B
:1006D000C006C007120250D007D00690002175F066
:1006E00040C006C007120250D007D006C006C0079F
:1006F0001200C0D007D0060549E549B41724C3EE5F
:100700009543EF9544501BC006C0071205B9AA8255
:10071000D007D006BA1B0122BA2004154980037500
:1007200049000EBE00010F0205F1C204C2057A00A5
:10073000BA20005063EA2421F88682C002C0001269
:1007400016DBE582D000D002600BEA2421F9870392
:100750005303DF8006EA2421F98703A603EA242154
:10076000F88682C00212169CE582D0026006EA2456
:1007700021F87600EA2421F88603BB3D067600D2F4
:100780000480128603BB2E028003BB5F08EA24218B
:10079000F87600D2050A80987A007B00BB200050D2
:1007A00024EA2421F8EB2421F98704A604BC000DD7
:1007B00074012B2421F88604BC00028005E5216029
:1007C000010A0B80D7BA20005009EA2421F87600EC
:1007D0000A80F2227A007B00E5412421F88604BCDD
:1007E000000280418C82C002C003121674E582D0E0
:1007F00003D002602C8A04EBC454F0CCC4CC6CCC83
:1008000054F0CC6CFDE5412421F88682C004C0057B
:10081000120380AE82D005D0047F00EE2CFAEF3DAB
:10082000FB054180B305418A828B8322AA82AB8378
:10083000ACF012025010990280FB75993D854A82F6
:100840001203A410990280FB75992010990280FB75
:10085000759920221200C0901F88E0F54A90193146
:1008600075F08012082C901F8AE0F54A90193475B3
:10087000F08012082C901F90E0F54A90193775F01F
:100880008012082C901F8BE0F54A90193A75F08081
:1008900012082C901F8EE0FAA3E0FB8A4A90193DC3
:1008A00075F08012082C901F8CE0FAA3E0FB8A4AB6
:1008B00090194175F08012082C901F89E0F54A903C
:1008C000194575F08012082C90194975F0801202B4
:1008D00050901F91E0FAA3E0FB8A828B831203C53C
:1008E0001200C0901F89E0FAC423541FFA53020378
:1008F000752152752300EAC40354F8FB7C00BC0840
:1009000000502B74302CF522EB2C2400F582E434BB
:100910001FF583E0F54A90002175F040C002C00346
:10092000C00412082CD004D003D0020C80D090193F
:100930004D75F080C002120250D00210990280FB67
:1009400074302AF5990200C0AA82AB831203C50253
:1009500000C0AA82AB83ACF07DFF8A828B838CF0CF
:100960001216EFFE6067EE2480505B8E050ABA0017
:10097000010B8A108B118C12750F00851082851166
:10098000838512F01216EFFF24804017E50F242113
:10099000F88606EFB5060C0510E4B5100205110542
:1009A0000F80D8AA10AB11AC1285108285118385F7
:1009B00012F01216EFFE2480500CE50F2421F88669
:1009C00006BE000280070ABA00900B808D8A828BD7
:1009D000838CF01216EF60038D82227582FF2290C5
:1009E0001F93E4F0C206901F9FE0FA7003020A878B
:1009F000901F9FE0FABA012D7A00BA04005026EA4F
:100A00002AFB2480F582E4341FF583E0FBA3E0FC9D
:100A1000901F91E0FDA3E0FEEBB50506ECB50602E4
:100A2000D2060A80D5901F9DE0FAA3E0FB901F91AB
:100A3000E0FCA3E0FDEAB50406EBB50502804890B2
:100A40001F9FE0FABA02004015755801E4F559906D
:100A50001F94E0FAA3E0FB8A828B8312110E209888
:100A600026A206B3E433FA601E901F9FE0FABA0391
:100A700003120854901F91E0FAA3E0FB901F94EA40
:100A8000F0A3EBF0121618901F9FE0FABA02004094
:100A90001DA298B3E433FA6015755801E4F5599036
:100AA0001F94E0FAA3E0FB8A828B8312110EC29896
:100AB000120854755801E4F559901F91E0FAA3E02B
:100AC000FB8A828B8302110E901F93E0FABA010217
:100AD000801A90195375F080120250120244901F30
:100AE000907407F012023A75540080031209DF90E7
:100AF000190075F080120250750F20E4F510751181
:100B00000090002175F0401203E11202B012072A92
:100B1000901F9DE4F0A3F0901F9FE4F07541001238
:100B200007D41207D485824F8583501207D4AC8234
:100B3000AD83C004C0051207D4858251858352D08D
:100B400005D00474F0554FF54B85504C740F2CFEB6
:100B5000E43DFF74F05EF54D8F4EAE4F9018787502
:100B6000F080C004C005C006120952E582D006D04C
:100B700005D004547FF554E554FF24DC5003020EE5
:100B8000AEEF240983C0E0EF242783C0E022D9ED33
:100B90000C455F7CB3CEE3FC17565691979DD82E3B
:100BA000FAFAFAFAFAFAFAFA274F313131316A933E
:100BB000A8D60B0B0C0C0C0C0C0C0C0C0D0D0D0D0D
:100BC0000D0D0D0D0D0D0D0D0D0D0D0D0D0D0E0E53
:100BD0000E0E0E0E0E0B020AEFE4F543F5447545BA
:100BE00044901F0075F0001205CE020AEF747F5585
:100BF0004FFF7A002400FFEA341FFA7B007542445D
:100C00008F828A838BF01204B7020AEF747F554FEC
:100C1000FA7B002400FAEB341FFB7F00C374809C36
:100C2000E49D5008755580E4F55680048C558D562A
:100C300085511185550F8556108A828B838FF0124E
:100C400003E1020AEF7A807B007F40E4F543F5443C
:100C50007545498A828B838FF01205CE020AEF74A4
:100C60007F554FFA7B004302807B007F40754249ED
:100C70008A828B838FF01204B7020AEF747F554F7C
:100C8000FA7B004302807B007F40C374809CE49D1C
:100C90005008755580E4F55680048C558D56855165
:100CA0001185550F8556108A828B838FF01203E1D0
:100CB000020AEFAA4BAB4C7F00854D43854E44752D
:100CC00045588A828B838FF01205CE020AEFAA4F15
:100CD000AB507F007542588A828B838FF01204B725
:100CE000020AEFAA4FAB507F008551118C0F8D1077
:100CF0008A828B838FF01203E1020AEFAA4BAB4C7E
:100D00007F80854D43854E447545438A828B838F12
:100D1000F01205CE020AEF8C588D59854F8285500E
:100D20008312110E020AEF901F9FE02401F0901F22
:100D30009FE02401F0E54F7007E5507003020AEFD1
:100D4000901F9DE54FF0A3E550F0E4F54FF550906E
:100D50001F9FE02401F0E54F7004E5506002800A17
:100D6000901F91E0FAA3E0FB8004AA4FAB50901FC4
:100D700094EAF0A3EBF0901F93E4F0E554B40B0475
:100D80007A0180027A00901F9CEAF0121618020A7B
:100D9000EF120854020AEF1200D1020AEF300417D2
:100DA000901F8CEEF0A3E4F0AA507B00901F8EEA17
:100DB000F0A3EBF0020AEF901F8EE0FAA3E08A03A3
:100DC0007C00901F8CE0FFA3E0FAEF2CF582EA3B59
:100DD000F583120948020AEF30040D901F91E54F88
:100DE000F0A3E550F0020AEF901F91E0FAA3E0FBB8
:100DF0008A828B83120948020AEF901F89E0FA5316
:100E00000218E5222A24D0FA30040FEA2400F582E1
:100E1000E4341FF583EEF0020AEFEA2400F582E4E1
:100E2000341FF583E0FBF5821203A41200C0020A0E
:100E3000EFE52324D0FA300416EA2AFB2480F58259
:100E4000E4341FF583E54FF0A3E550F0020AEFEA22
:100E50002AFB2480F582E4341FF583E0FBA3E0FF46
:100E60008B828F83120948020AEF7A00BA0400408D
:100E700003020AEFEA2AFF2480F582E4341FF58397
:100E8000E0FFA3E0FB8F828B83C002120948D002EF
:100E90000A80D9750F08E4F510751100901F807550
:100EA000F0001203E1020AEF12023A020AEF901771
:100EB0008275F080C004C005C006120952858253B5
:100EC000D006D005D004E553B4FF02801174F85564
:100ED00053FF740755539018F493F55380259017DA
:100EE0000B75F080C004C005C006120952AF82D055
:100EF00006D005D00430050B74075E9018F493F506
:100F0000538C06BFFF0302101AE4BFD00104FC603B
:100F100007901F89E0FA8059BFE007901F88E0FA28
:100F2000804FBFF007901F8AE0FA8045BFA8079066
:100F30001F8BE0FA803BBF8107901F90E0FA803161
:100F4000BF820C901F8CE0FDA3E0FB8D028022BFCE
:100F5000830C901F8EE0FBA3E0FD8B0280138F8239
:100F6000C004C006C007120206AA82D007D006D06D
:100F700004E553B4FF0474018001E4FB700FEE60DC
:100F800006E5534AFE8006E553F4FD5AFEBFB00A5B
:100F9000740355B0FD74FC5E4DFE30045BEC6008DC
:100FA000901F89EEF0020AEFBFE008901F88EEF074
:100FB000020AEFBFF008901F8AEEF0020AEFBFA806
:100FC00008901F8BEEF0020AEFBF8108901F90EE91
:100FD000F0020AEFBF820B901F8CEEF0A3E4F00248
:100FE0000AEFBF830B901F8EEEF0A3E4F0020AEF2E
:100FF0008E82120236020AEFEB60078A821203A485
:10100000801210990280FBE5535A60047A31800205
:101010007A308A991200C0020AEF90198F75F08019
:06102000120250020AEF6B
:101878008044814D448246448349844D4985464984
:101888008658874D5888465889438A558B478C53C4
:101898008D528E4C8F4450545290504391549252D2
:1018A800309352319452329552339652349752357E
:1018B8009852369952379A54529B47429C4252301A
:1018C8009D4252319E4252329F425233A04252A10F
:1018D800425243A2504352A3A40000303132333461
:1018E8003536373839414243444546000102040839
:1018F80010204080082008003E20003C537061639F
:10190800653E3D6C696E65203C456E7465723E3D72
:1019180070616765203C4553433E3D73746F700D9D
:10192800003A2020002020200041200042200053BF
:1019380050004945004450480044504C005053570B
:101948000050433D0042414E4B20000A0A434D4F90
:101958004E35312056312E320A436F7079526967FD
:1019680068742028632920323030352C20323030FA
:1019780036204A657375732043616C76696E6F2DE6
:0E19880046726167610A00576861743F0A0089
:10102600AA82AB570557EB2421F8EAC4540F90184F
:10103600E393FBF6AB570557EB2421F8740F5A9050
:1010460018E393FBF68A821203A410990280FB75BB
:10105600992022AA82AB83ACF08A828B838CF01211
:1010660016EFFD6016BD80005011AE570557EE24F1
:1010760021F8A6050ABA00E10B80DE22AA82AB831C
:10108600AC570557EC2421F8EBC4540FFC7D0053F4
:10109600040F7D00EC24E3F582ED3418F583E49328
:1010A600FCF6AC570557EC2421F88B047D0053045D
:1010B6000F7D00EC24E3F582ED3418F583E493FC10
:1010C600F6AC570557EC2421F88A04EBC4CCC4547B
:1010D6000F6CCC540FCC6CCCFD53040F7D00EC246C
:1010E600E3F582ED3418F583E493FCF6AC57055727
:1010F600EC2421F853020F7B00EA24E3F582EB345B
:1011060018F583E493FAF622AA82AB83755C008A0B
:10111600628B63E5587004E55960028006755801D4
:10112600E4F559AD58AE59155874FFB5580215591E
:10113600ED4E7001228562828563831203C5901C81
:10114600AE75F080120250856282856383E493FD5A
:10115600F582C0051203A4D00510990280FB75998B
:10116600207557017521097E007F007C00EF24B6AB
:10117600F582EC3419F583E493FA6011EDB50602B5
:10118600800BBA0A010E0FBF00E30C80E08F028CC1
:1011960003EA24B6F582EB3419F583E493FCBC0A22
:1011A600070ABA00EC0B80E974075D4430F56474F5
:1011B600015D4430FEE4BD900104FD8A5A8B5BE577
:1011C6005A24B6F582E55B3419F583E493FFBF0A2A
:1011D60003021572C207BF4100402AEF24A540252D
:1011E600EF24BFFA25E090199693FA740193FB7CDD
:1011F600808A828B838CF0C005C006121059D006F7
:10120600D005021567BF2102807CBF23028026BF5E
:1012160025028070BF260302142DBF2A0302152A59
:10122600BF2E030213CFBF3A030214AEBF3F030221
:10123600154702155DAA570557EA2421F8762305B6
:1012460062E4B562020563856282856383E493FA8C
:10125600F582C005C006121026D006D005ED700333
:101266000215670562E4B5620205638562828563DD
:1012760083E493FAF582C005C006121026D006D084
:1012860005021567D2073007067A827B1780047A33
:101296000B7B178A5D8B5E755F800562E4B5620223
:1012A6000563856282856383E493FF7A00EF248079
:1012B60040030213BF855D65855E66855F6785654C
:1012C600828566838567F01216EFFB700302137240
:1012D600EBB50702800302135E8F82C002C005C011
:1012E60006C0071203A4D007D006D005D002109975
:1012F6000280FB759920055DE4B55D02055E855D9E
:1013060068855E69855F6A856882856983856AF016
:101316001216EFFBBB80005014AC570557EC242186
:10132600F8A6030568E4B568DE056980DA85685DB8
:1013360085695E856A5FC374808AF063F08095F084
:10134600502AAB570557EB2421F8762EAB57055795
:10135600EB2421F8A60280140565E4B5650205664E
:1013660085655D85665E85675F0212C4855D8285DB
:101376005E83855FF01216EFFB6003021567C37488
:10138600808AF063F08095F0500574075A42071082
:101396000702801574075F4430FA5307F8755D0B32
:1013A600755E17755F800212B38F82C005C0061284
:1013B6001026D006D0050215678F82C005C006121A
:1013C6001026D006D005021567C0060562E4B56290
:1013D600020563AA62AB63856282856383E493FC3C
:1013E6003395E0FEEC2AFAEE3BFB74012AF560E445
:1013F6003BF561856082856183C005C00612108257
:10140600D006D005856282856383E493FAF582C0AF
:1014160005C0061203A4D006D005D0061099028096
:10142600FB759920021567C006856282856383E491
:1014360093FAC4035407FAAB62AC6374022BFBE461
:101446003CFC8C037C005303F8E4FCFEEA4203EE0A
:1014560042048B070562E4B5620205638F028A03C4
:101466007A00856282856383E493FC7E002AF560B8
:10147600EE3BF561856082856183C005C00612106A
:1014860082D006D005856282856383E493FAF5826D
:10149600C005C0061203A4D006D005D006109902D6
:1014A60080FB7599200215670562E4B56202056343
:1014B600856282856383E493FA8A037C008B617577
:1014C60060008A82C005C0061203A4D006D00510AB
:1014D600990280FB7599200562E4B5620205638571
:1014E6006282856383E493FAF582C005C00612031F
:1014F600A4D006D00510990280FB759920856282DA
:10150600856383E493FA7B002560F560EB3561F52E
:1015160061856082856183C005C006121082D0068F
:10152600D005803D901CB175F080C005C006121034
:1015360059D006D005AA570557EA2421F8A60680F1
:1015460020AA570557EA2421F87672AA570557EAC2
:101556002421F8A664800AAA570557EA2421F8A68A
:1015660007055AE4B55A02055B0211C5AA57055785
:10157600EA2421F8760AAA570557EA2421F87600C4
:1015860090002175F0401202500562E4B562020532
:1015960063055CE55CB4170280030211291205B9E4
:1015A600AF82BF1B0122BF2005155C021129755CA5
:0415B60000021129F5
:10199600B41CB91CBE1CC31CCA1CD11CD91CE01C1F
:1019A600E61CED1CF41CFC1C021D091D0F1D151D5B
:1019B6006E6F700A48260A6C6A6D70093A0A72726E
:1019C60009610A42610A42210A0A422A0A0A0A0AE5
:1019D6000A0A0A0A423F0A6A626309252C2E0A4449
:1019E600260A6C63616C6C093A0A72726320610A9A
:1019F60043610A43210A0A432A0A0A0A0A0A0A0A08
:101A06000A433F0A6A6209252C2E0A48260A72658D
:101A1600740A726C09610A45230A45210A0A452A95
:101A26000A0A0A0A0A0A0A0A453F0A6A6E6209256A
:101A36002C2E0A44260A726574690A726C6309615F
:101A46000A46230A46210A0A462A0A0A0A0A0A0AEC
:101A56000A0A463F0A6A63092E0A48260A6F726C0A
:101A660009212C610A6F726C09212C230A47230A6B
:101A760047210A0A472A0A0A0A0A0A0A0A0A473F9D
:101A86000A6A6E63092E0A44260A616E6C09212CC5
:101A9600610A616E6C09212C230A49230A49210A2D
:101AA6000A492A0A0A0A0A0A0A0A0A493F0A6A7AED
:101AB600092E0A48260A78726C09212C610A787266
:101AC6006C09212C230A4A230A4A210A0A4A2A0AAD
:101AD6000A0A0A0A0A0A0A4A3F0A6A6E7A092E0A94
:101AE60044260A6F726C09632C250A6A6D700940D8
:101AF600612B500A41612C230A41212C230A0A41F9
:101B06002A2C230A0A0A0A0A0A0A0A413F2C230A2D
:101B1600736A6D70092E0A48260A616E6C20632C62
:101B2600250A6D6F766309612C40612B70630A6428
:101B360069760961620A41212C210A0A41212C2A6F
:101B46000A0A0A0A0A0A0A0A41212C3F0A41502CAB
:101B5600230A44260A41252C630A6D6F76630961C0
:101B66002C40612B500A4B230A4B2E0A0A4B2A0A99
:101B76000A0A0A0A0A0A0A4B3F0A6F726C09632CA0
:101B86002F2E0A48260A41632C250A42500A6D75F3
:101B96006C0961620A64620961350A0A412A2C21CC
:101BA6000A0A0A0A0A0A0A0A413F2C210A616E6CCD
:101BB60009632C2F2E0A44260A63706C09250A63D2
:101BC600706C09630A4C612C23202E0A4C612C216F
:101BD600202E0A0A4C2A2C23202E0A0A0A0A0A0A4E
:101BE6000A0A4C3F2C23202E0A7075736809210AB5
:101BF60048260A636C7209250A636C7209630A73C4
:101C060077617009610A4D210A0A4D2A0A0A0A0AF1
:101C16000A0A0A0A4D3F0A706F7009210A44260A09
:101C26007365746209250A7365746209630A6461DF
:101C36002F74610A4E21202E0A0A786368640961AE
:101C46002C2A0A0A0A0A0A0A0A0A4E3F2C2E0A4FA8
:101C5600612C40500A48260A0A4F612C2A0A636CF6
:101C66007209610A41612C210A0A41612C2A0A0A79
:101C76000A0A0A0A0A0A41612C3F0A4F40502C619F
:101C86000A44260A0A4F2A2C610A63706C09610A03
:101C960041212C610A0A412A2C610A0A0A0A0A0A07
:101CA6000A0A413F2C610A003A20004072006D6F1B
:101CB600760900696E630900646563090061636102
:101CC6006C6C090061646409612C006164646309D9
:101CD600612C006F726C09612C00616A6D700900DD
:101CE600616E6C09612C0078726C09612C00737549
:101CF600626209612C00636A6E650900786368098F
:101D0600612C00646A6E7A09006D6F76780900644A
:041D16007074720073
:1015BA00C2ABC0A8C2AFC083C082901F88F0901F80
:1015CA0089E5D0F0901F8AE5F0F0901F8CD0E0F00A
:1015DA00901F8ED0E0F0901F8BD0E0F0901F92D039
:1015EA00E0F0901F91D0E0F0901F90E581F0901FFD
:1015FA000075D000E8F07801A3E6F008B880F99009
:10160A001F937401F075816A12009B02008A787F29
:10161A00901F7FE0F61582D8FAE0F6901F8BE0F56E
:10162A00A8901F8AE0F5F0901F89E0F5D0901F90EE
:10163A00E0F581901F94E0C0E0A3E0C0E0901F8C29
:10164A00E0C0E0901F8EE0C0E0901F9CE06009902F
:10165A001F88E0D083D08232901F88E0D083D08266
:10166A0012024DD2AFD28AD2AB32AA82BA3000402D
:10167A0005EA24C65014BA61004005EA2499500AC2
:10168A00BA41004009EA24B94004758201227582F0
:10169A000022AA82BA20028017BA0C028012BA0A61
:1016AA0002800DBA0D028008BA09028003BA0B043F
:0816BA007582012275820022F5
:06005D00E478FFF6D8FD77
:10003B007900E94400601B7A00901D1A78C175A005
:10004B001FE493F2A308B8000205A0D9F4DAF27505
:02005B00A0FF04
:1016C20020F71030F6118883A88220F507F6A88348
:0916D20075830022F280F7F0227A
:100063007800E84400600A790075A000E4F309D839
:10007300FC78C1E84400600C7901901F00E4F0A310
:04008300D8FCD9FAD2
:1016DB00AA82BA61004009EA24854004758201227E
:0416EB0075820022E2
:0D002E0075816A12009BE582600302008A62
:1016EF0020F71430F6148883A88220F507E6A88324
:0C16FF0075830022E280F7E49322E022D1
:00000001FF
