:03080000020806E5
:15085F0075300575310075320675330075340775350002080378
:0308030002087474
:0E087400E5322530F534E5333531F53580F2C7
:06083500E478FFF6D8FD97
:200813007900E94400601B7A00900886780175A000E493F2A308B8000205A0D9F4DAF275FD
:02083300A0FF24
:20083B007800E84400600A790175A000E4F309D8FC7800E84400600C7900900001E4F0A3BB
:04085B00D8FCD9FAF2
:0D080600758135120882E582600302080347
:040882007582002259
:00000001FF
