:060000000200E202800391
:03000B0002800B65
:0300130002801355
:03001B0002801B45
:0300230002802335
:03002B0002802B25
:0300330002803315
:03003B0002803B05
:03004300028043F5
:03004B0002804BE5
:03005300028053D5
:03005B0002805BC5
:03006300028063B5
:03006B0002806BA5
:0300730002807395
:03007B0002807B85
:0300830002808375
:03008B0002808B65
:0300930002809355
:03009B0002809B45
:1000A3000D0A0D0A424F4F542D3531202056312E63
:1000B300312020202020202020202020436F707911
:1000C30072696768742028632920323030322062D5
:1000D3007920572E572E204865696E7A0D0A001233
:1000E300039C7598721203919000A312035412019A
:1000F30011758107C082C08312037460FB120391E0
:100103001203AE900000E4F598F5F0F5D022120149
:10011300527830E660F812033508B4200280F4FF09
:10012300120349EFB4550A120148700D12019D8064
:10013300DDB447051202D960077F001201CB80CEE0
:100143008D828C8322E66006B420030880F7221296
:100153000349743E1203627830760012036AB40DC9
:100163000122B4080EB8300280EF900199120354B3
:100173001880E6B47F0280EDFAC3942040DBEA9452
:100183007F50D6B87707740712036280CCEA120354
:1001930062EAF60880C308200800743A1203621268
:1001A300025BFF6017780279CD7A0012037A60054B
:1001B30012036A80F000DAF3D9F1D8EFEF6003128B
:1001C30001C62290024B800390024D12035490010A
:1001D300E9EF2393CF230493F5828F831203549083
:1001E30002541203542201F30203021502240239BA
:1001F300696C6C6567616C20636F6D6D616E640023
:10020300696C6C6567616C206865782064696769EF
:100213007400636865636B73756D206572726F72CA
:1002230000756E65787065637465642063686172D8
:10023300616374657200696C6C6567616C207265DB
:10024300636F7264204944000D0A404040404020DF
:10025300002040404040400012036AB43AFA79005B
:100263001202C1404DF81202C14047F5831202C188
:100273004040F5821202C14039FAE860091202C116
:100283004030F0A3D8F71202C14027E97027EA7083
:100293001912036AB40D0E12036AB40A0312036A35
:1002A300B43A1580B9B40A1080F3B4010E12036A8C
:1002B300E4227401227402227403227404221203BE
:1002C3006A12030B400FC4FF12036A12030B4005AB
:1002D3004FC929C9C3227E041202E37002314822A6
:1002E300E66022B420030880F77C007D0012030B34
:1002F300401312032B081EE612030B400612032BB6
:1003030008DEF4E42274FF22120335F5F0C39430BF
:100313004015744695F0400FE5F0943A4006E5F039
:1003230094414003240AC322C47F0633CD33CCDF78
:10033300FA22F5F0C39461400AE5F0947B5004344B
:100343005AF5F0E5F022740D120362740A12036287
:1003530022E4936009120362120380A380F3223024
:1003630099FDC299F599223098FDE599C298547F79
:1003730022E43099011422E43098011422C006C00B
:10038300077E027FCDDFFEDEFCD007D006227E0192
:100393007F0A7180DFFCDEFA22758800758920757B
:1003A3008DE853877F438700D28E22E4F588F58951
:0803B300F58DF58B53877F22C5
:00000001FF
