:060000000200E202800391
:03000B0002800B65
:0300130002801355
:03001B0002801B45
:0300230002802335
:03002B0002802B25
:0300330002803315
:03003B0002803B05
:03004300028043F5
:03004B0002804BE5
:03005300028053D5
:03005B0002805BC5
:03006300028063B5
:03006B0002806BA5
:0300730002807395
:03007B0002807B85
:0300830002808375
:03008B0002808B65
:0300930002809355
:03009B0002809B45
:1000A3000D0A0D0A424F4F542D3531202056312E63
:1000B300312020202020202020202020436F707911
:1000C30072696768742028632920323030322062D5
:1000D3007920572E572E204865696E7A0D0A001233
:1000E30003A575987212039A9000A312035D12017F
:1000F30011758107C082C08312037D60FB12039ACE
:100103001203B7900000E4F598F5F0F5D022120140
:10011300527830E660F812033E08B4200280F4FF00
:10012300120352EFB4550A120148700D12019D805B
:10013300DDB447051202E260077F001201CB80CED7
:100143008D828C8322E66006B420030880F7221296
:100153000352743E12036B78307600120373B40DAE
:100163000122B4080EB8300280EF90019912035DAA
:100173001880E6B47F0280EDFAC3942040DBEA9452
:100183007F50D6B87707740712036B80CCEA12034B
:100193006BEAF60880C308200800743A12036B1256
:1001A300025BFF6017780279CD7A00120383600542
:1001B30012037380F000DAF3D9F1D8EFEF60031282
:1001C30001C62290024B800390024D12035D900101
:1001D300E9EF2393CF230493F5828F8312035D907A
:1001E300025412035D2201F30203021502240239B1
:1001F300696C6C6567616C20636F6D6D616E640023
:10020300696C6C6567616C206865782064696769EF
:100213007400636865636B73756D206572726F72CA
:1002230000756E65787065637465642063686172D8
:10023300616374657200696C6C6567616C207265DB
:10024300636F7264204944000D0A404040404020DF
:100253000020404040404000120373B43AFA790052
:100263001202CA4056F81202CA4050F5831202CA5B
:100273004049F5821202CA4042FAE860091202CAF2
:100283004039F0A3D8F71202CA4030E97030EA705F
:1002930022120373B40D17120373B40A0312037308
:1002A300B43A1EC0E0742E12036BD0E080B0B40ADF
:1002B3001080EAB4010E120373E422740122740263
:1002C30022740322740422120373120314400FC412
:1002D300FF12037312031440054FC929C9C3227EB9
:1002E300041202EC7002314822E66022B4200308B3
:1002F30080F77C007D001203144013120334081EA0
:10030300E6120314400612033408DEF4E42274FFF9
:100313002212033EF5F0C394304015744695F04025
:100323000FE5F0943A4006E5F094414003240AC3F4
:1003330022C47F0633CD33CCDFFA22F5F0C39461B8
:10034300400AE5F0947B5004345AF5F0E5F022744A
:100353000D12036B740A12036B22E49360091203F8
:100363006B120389A380F3223099FDC299F5992278
:100373003098FDE599C298547F22E4309901142204
:10038300E43098011422C006C0077E027FCDDFFE51
:10039300DEFCD007D006227E017F027189DFFCDEFE
:1003A300FA22758800758920758DFD53877F4387F1
:1003B30000D28E22E4F588F589F58DF58B53877F7E
:0103C3002217
:00000001FF
