:03000000020030CB
:100030007581601206E5120BC09007341206FF129C
:1000400001939001D41206FF1201939001FB120656
:10005000FF783012071178301201899005517A0427
:10006000120976B40005120A5A80E078301201892C
:100070009005567A02120976B40005120AA680CBC2
:1000800078301201899005597A04120976B4000576
:10009000120AF480B6783012018990055E7A041253
:1000A0000976B40005120B1F80A1783012018990E7
:1000B00005637A04120976B40005120B40808C782F
:1000C0003012018990056E7A05120976B40002019A
:1000D000307830120189900568120963B400051266
:1000E0000BC0014B78301201899005747A04120913
:1000F00076B40005120BE6014B78301201899005A9
:10010000797A04120976B40005120C08014B783094
:1001100012018990057E7A04120976B40005120C4A
:100120002F014B78301201899005837A04120976E9
:10013000B40005120C44014B7830120189900588F7
:100140007A03120976B40005120C99014B7830122B
:10015000018990058C7A05120976B40005120DA369
:10016000014B1201937830E660099005921206FF68
:10017000120193014B80FEE6120A2A08F5F0E612FE
:100180000A2AC454F045F0C422E66006B4200308ED
:1001900080F7229001F81206FF2274091206F7DF99
:1001A000F92274201206F7DFF9227E057FA27C1067
:1001B0007D007B2C1209ED7E057FA27C107D007BEB
:1001C0002C1209BDBF00069005E31206FF9005CF73
:1001D0001206FF22090909436F7079726967687412
:1001E00020323032352047696E6F204D616C70616E
:1001F00072746964610D0A000D0A006735313E2092
:100200000068656C703A00646973706C6179732082
:100210006C697374206F6620617661696C61626CD1
:100220006520636F6D6D616E64732E006C733A00B0
:10023000646973706C61797320617661696C616265
:100240006C65206170706C69636174696F6E732E88
:10025000007065656B3A006578616D696E65206157
:100260002073696E676C65206D656D6F72792063B0
:10027000656C6C2E0D0A09090965782E207065657C
:100280006B203162326300706F6B653A006D6F6492
:1002900069667920612073696E676C65206D656D94
:1002A0006F72792063656C6C2E0D0A0909096578F7
:1002B0002E20706F6B65203162326320353500640B
:1002C000756D703A00646973706C61797320612098
:1002D000323536206D656D6F727920626C6F636B9D
:1002E0002E0D0A09090965782E2064756D7020317C
:1002F0003200636C6561723A00636C6561722073F1
:10030000637265656E20616E6420686F6D65732031
:1003100074686520637572736F722E007265736501
:10032000743A00706572666F726D206120736F663B
:10033000742D7265736574206F6620746865207310
:10034000797374656D2E0066696C6C3A00696E692C
:100350007469616C697A65732061206D656D6F7277
:100360007920626C6F636B207769746820612073F9
:100370007065636966696320627974652E0D0A0988
:10038000090965782E2066696C6C2031616237201E
:10039000666620316100636F70793A00636F70693F
:1003A0006573206120626C6F636B206F66206461EF
:1003B00074612066726F6D206F6E65206D656D6F64
:1003C0007279206C6F636174696F6E20746F206145
:1003D0006E6F746865722E0D0A09090965782E2002
:1003E000636F707920326434662038336264206130
:1003F0003500676F746F3A006A756D707320746FA3
:100400002061206C6F636174696F6E20696E20706B
:10041000726F6772616D206D656D6F727920746F98
:10042000206578656375746520636F64652E0D0AB9
:1004300009090965782E20676F746F20386165336C
:100440000063616C6C3A0063616C6C7320612073B3
:100450007562726F7574696E6520746F20626520B5
:1004600065786563757465642E0D0A0909096578F8
:100470002E2063616C6C2066343364006972616D98
:100480003A00646973706C617973207468652063E5
:100490006F6E74656E7473206F6620746865206972
:1004A0006E7465726E616C206D656D6F727920611E
:1004B0007265612E007366723A00646973706C61D4
:1004C000797320746865207370656369616C206658
:1004D000756E6374696F6E20726567697374657297
:1004E000732E007772697465006D6F646966792098
:1004F000616E207366722072656769737465722C11
:100500000D0A09090965782E2077726974652070D3
:10051000312035350002010207022C02300251025F
:10052000570287028D02BF02C502F202F9031C03C3
:10053000230347034D0396039C03F203F80441048D
:1005400047047C048204B504BA04E304E900000013
:100550000068656C70006C73007065656B00706F8F
:100560006B650064756D7000636C65617200726527
:100570007365740066696C6C00636F707900676FF7
:10058000746F006972616D007366720077726974CE
:100590006500556E6B6E6F776E20436F6D6D616E8B
:1005A000640054686520717569636B2062726F77AF
:1005B0006E20666F78206A756D7073206F76657235
:1005C00020746865206C617A7920646F672E004D15
:1005D000656D6F72792074657374206661696C65EE
:1005E000642E004D656D6F7279207465737420738D
:1005F00075636365656465642E006C636400416CBB
:100600006C6F77732074657374696E67206F6620F2
:10061000746865206C63642073637265656E20691D
:100620006E2050312C2050330070776D00416C6C7F
:100630006F77732074657374696E67206F662074BA
:1006400068652070776D206170706C696361746992
:100650006F6E2E00767431303200416C6C6F7773A0
:100660002074657374696E67207468652056543110
:100670003032206573636170652073657175656ED6
:100680006365732E0005FA05FE0E1E0629062D0E63
:100690001F0654065A0E20000000000000503000D3
:1006A00053500050434F4E0054434F4E00544D4F53
:1006B0004400544C3000544C3100544830005448ED
:1006C000310050310053434F4E00534255460050C5
:1006D0003200494500503300495000505357004103
:1006E0004343004200758920758DFD759850D28E68
:1006F0009000007400F022F5993099FDC29922E42F
:10070000936005D1F7A380F7223098FDE599C29850
:1007100022F109D1F7B40D028017B40A028012B495
:10072000080B187420D1F77408D1F780E4F608801C
:10073000E0760022095F5F5F5F5F2F5C5C5C5C5C62
:100740005C5C5C5C5C5C5C5F5F5F5F2F5C5C5C5C0A
:100750005C5C5C5C5C5C5C5C5C5C5C5F205F5F5F09
:100760005F5F5F2F5C5C5C5F2020202020202020CA
:100770000D0A09205F5F5F2F5C5C5C2F2F2F2F2FEE
:100780002F2F2F2F2F5F5F5F5F5C2F5C5C5C2F2F05
:100790002F2F2F2F2F2F2F2F2F5F5F205F5F2F5C8B
:1007A0005C5C5C5C5C5C5F202020202020200D0ACB
:1007B0000920205F5F2F5C5C5C5F5F5F5F5F5F5F56
:1007C0005F5F5F5F5F5F5F5F5C2F5C5C5C5F5F5F75
:1007D0005F5F5F5F5F5F5F5F5F5F205F5C2F2F2FFB
:1007E0002F2F5C5C5C5F2020202020200D0A092038
:1007F00020205F5C2F5C5C5C5F5F5F5F2F5C5C5CFC
:100800005C5C5C5C5F5F5F5C2F5C5C5C5C5C5C5C4C
:100810005C5C5C5C5C5F5F5F5F5F5F5F5F5F5F5CFA
:100820002F5C5C5C5F20202020200D0A0920202006
:10083000205F5C2F5C5C5C5F5F5F5C2F2F2F2F2F36
:100840005C5C5C5F5F5F5C2F2F2F2F2F2F2F2F2F74
:100850002F2F2F5C5C5C5F5F5F5F5F5F5F5F5C2F74
:100860005C5C5C5F202020200D0A092020202020D5
:100870005F5C2F5C5C5C5F5F5F5F5F5F5F5C2F5CFA
:100880005C5C5F5F5F5F5F5F5F5F5F5F5F5F5F5F7E
:100890005C2F2F5C5C5C5F5F5F5F5F5F5F5C2F5C0A
:1008A0005C5C5F2020200D0A092020202020205F92
:1008B0005C2F5C5C5C5F5F5F5F5F5F5F5C2F5C5CBD
:1008C0005C5F5F5F2F5C5C5C5F5F5F5F5F5F5F5F74
:1008D0005C2F5C5C5C5F5F5F5F5F5F5F5C2F5C5C9D
:1008E0005C5F20200D0A09202020202020205F5C52
:1008F0002F2F5C5C5C5C5C5C5C5C5C5C5C5C2F5FBC
:100900005F5F5C2F2F5C5C5C5C5C5C5C5C5C5C5C7B
:100910005C5C2F5F5F5F5F5F5F5F5F5C2F5C5C5C59
:100920005F200D0A0920202020202020205F5F5C0E
:100930002F2F2F2F2F2F2F2F2F2F2F2F5F5F5F5F07
:100940005F5F5C2F2F2F2F2F2F2F2F2F2F2F2F2F2A
:100950005F5F5F5F5F5F5F5F5F5F5C2F2F2F5F2079
:100960000D0A00E493F5F0E6B5F008600408A380F2
:10097000F2E422740122E493F5F0E6B5F00608A350
:10098000DAF4E4227401228E838F82E493C39D7093
:1009900005DCF802099C7E007F00D322AE83AF8283
:1009A000C3228E838F82E4E0600EC39D7005DCF667
:1009B0000209B87E007F0022AE83AF82228E838F31
:1009C00082E493F5F0A3AE83AF828C838D82E0C383
:1009D00095F0700EDBEBA3AC83AD828E838F820229
:1009E00009EA40037F01227FFF227F00228E838F4E
:1009F00082E493F5F0A3AE83AF828C838D82E5F021
:100A0000F0A3AC83AD82DBE5228E838F82ECF0A372
:100A1000DDFB228E838F82E0A3AE83AF828C838D39
:100A200082F0A3AC83AD82DBEA22FAC39430F9C32F
:100A3000940A5002E922EA54DF943722C3FA940A56
:100A40004006EA2437442022EA243022FFC4540F0F
:100A5000513CF5F0EF540F513C22120193900515D3
:100A6000E493FF740193FE4F603B74091206F7C0D4
:100A700083C0828F838E821206FF74091206F712DA
:100A800006F7D082D083A3A3E493FF740193FEC042
:100A900083C0828F838E821206FF120193D082D090
:100AA00083A3A380BB22120193900685E493FF7475
:100AB0000193FE4F603D74091206F7C083C0828F18
:100AC000838E821206FF74091206F71206F7D0828F
:100AD000D083A3A3E493FF740193FEC083C0828FED
:100AE000838E821206FF120193D082D083A3A3A328
:100AF000A380B92212019312018912017708FF1213
:100B00000177FE8F838E82E0F5F0C4540F513C12C2
:100B100006F7E5F0540F513C1206F712019322122A
:100B2000019312018912017708FF120177FE081262
:100B30000189120177FD8F838E82EDF012019322DD
:100B4000120193120189120177FF74091206F7123C
:100B50000BC71201937E007D10120B8F120B6912CE
:100B60000193EE2410FEDDF1228F838E827C10E053
:100B7000F5F0C4540F513C1206F7E5F0540F513C08
:100B80001206F774201206F71206F7A3DCE122EF33
:100B9000C4540F513C1206F7EF540F513C1206F7A4
:100BA000EEC4540F513C1206F7EE540F513C12069E
:100BB000F774201206F71206F71206F71206F7224C
:100BC000900E151206FF227CFF7B100C743012066B
:100BD000F7EC540F513C1206F774201206F77420FC
:100BE0001206F7DBE622120193120189120177FE49
:100BF00008120177FF08120189120177FD0812011E
:100C000089120177FC510922120193120189120104
:100C100077FE08120177FF08120189120177FC089C
:100C2000120177FD08120189120177FB511322127C
:100C30000193120189120177FE08120177FFC007A4
:100C4000C00622221201937F0112019A71C712017C
:100C5000937F0878007E10E8F5F0C4540F513C12E1
:100C600006F7E5F0540F513C1206F7C0077F01125A
:100C7000019AD007E6F5F0C4540F513C1206F7E58F
:100C8000F0540F513C1206F774201206F71206F7C3
:100C900008DEE1120193DFBD2212019390069DE56B
:100CA00080120D887F0112019A9006C2E590120D04
:100CB000889006CF7F0112019AE5A0120D887F016E
:100CC00012019A9006D5E5B0120D887F0112019AA3
:100CD0001201939006A3E587120D887F0112019AF5
:100CE0009006DBE5D0120D887F0112019A9006D89C
:100CF000E5B8120D887F0112019A9006D2E5A8127C
:100D00000D887F0112019A1201939006A8E58812BE
:100D10000D887F0112019A9006ADE589120D887F3A
:100D20000112019A9006B2E58A120D887F01120124
:100D30009A9006B6E58B120D887F0112019A9006F3
:100D4000BAE58C120D887F0112019A9006BEE58DDE
:100D5000120D881201939006C5E598120D887F0147
:100D600012019A9006CAE599120D88120193900615
:100D7000DF120D887F0112019A9006E3E5F0120D53
:100D80008812019312019322C0E01206FF74091227
:100D900006F7D0E0514CC0E0E5F01206F7D0E012C3
:100DA00006F722120193120189E6B4705408E6088E
:100DB000B4300B120189120177F580020E03B431B1
:100DC0000B120189120177F590020E03B4320B1257
:100DD0000189120177F5A0020E03B4330B120189C9
:100DE000120177F5B0020E03B4631608E6B46F1172
:100DF00008E6B46E0C08120189120177F587020E1D
:100E000003D322C3221B5B41001B5B42001B5B43DD
:100E1000001B5B44001B5B481B5B324A0022222202
:010E200022AF
:00000001FF
