:10000000020003758160120D23120AC29006361297
:100010000D3D12016690017D120D3D1201669001A9
:10002000A4120D3D7830120D4F783012015C90040F
:10003000FA7A04120878B4000512095C80E078307E
:1000400012015C9004FF7A02120878B400051209CC
:10005000A880CB783012015C9005027A04120878EF
:10006000B400051209F680B6783012015C900507DD
:100070007A04120878B40005120A2180A17830129F
:10008000015C90050C7A04120878B40005120A424B
:10009000808C783012015C9005177A05120878B4CC
:1000A00000020103783012015C900511120865B45A
:1000B0000005120AC2011E783012015C90051D7AFB
:1000C00004120878B40005120AE8011E7830120103
:1000D0005C9005227A04120878B40005120B0A011C
:1000E0001E783012015C9005277A04120878B4005B
:1000F00005120B31011E783012015C90052C7A0438
:10010000120878B40005120B46011E783012015C0B
:100110009005317A03120878B40005120B9B011E7A
:10012000783012015C9005357A05120878B4000524
:10013000120CA5011E1201667830E6600990053B9D
:10014000120D3D120166011E80FEE612092C08F513
:10015000F0E612092CC454F045F0C422E66006B45F
:1001600020030880F7229001A1120D3D227409128C
:100170000D35DFF9227420120D35DFF92209090946
:10018000436F707972696768742032303235204766
:10019000696E6F204D616C706172746964610D0AE3
:1001A000000D0A006735313E200068656C703A002A
:1001B000646973706C617973206C697374206F6605
:1001C00020617661696C61626C6520636F6D6D6141
:1001D0006E64732E006C733A00646973706C61799D
:1001E0007320617661696C61626C65206170706C0E
:1001F00069636174696F6E732E007065656B3A0098
:100200006578616D696E6520612073696E676C65E4
:10021000206D656D6F72792063656C6C2E0D0A0917
:10022000090965782E207065656B203162326300A4
:10023000706F6B653A006D6F646966792061207339
:10024000696E676C65206D656D6F72792063656C92
:100250006C2E0D0A09090965782E20706F6B6520D8
:10026000316232632035350064756D703A0064691F
:1002700073706C617973206120323536206D656D45
:100280006F727920626C6F636B2E0D0A0909096524
:10029000782E2064756D7020313200636C65617258
:1002A0003A00636C6561722073637265656E2061EC
:1002B0006E6420686F6D6573207468652063757265
:1002C000736F722E0072657365743A0070657266A2
:1002D0006F726D206120736F66742D726573657423
:1002E000206F66207468652073797374656D2E00C5
:1002F00066696C6C3A00696E697469616C697A65EB
:10030000732061206D656D6F727920626C6F636B15
:10031000207769746820612073706563696669631A
:1003200020627974652E0D0A09090965782E206608
:10033000696C6C2031616237206666203161006330
:100340006F70793A00636F70696573206120626C29
:100350006F636B206F6620646174612066726F6DDD
:10036000206F6E65206D656D6F7279206C6F6361B3
:1003700074696F6E20746F20616E6F746865722E81
:100380000D0A09090965782E20636F70792032649F
:100390003466203833626420613500676F746F3AC9
:1003A000006A756D707320746F2061206C6F6361DB
:1003B00074696F6E20696E2070726F6772616D2054
:1003C0006D656D6F727920746F20657865637574E3
:1003D0006520636F64652E0D0A09090965782E2072
:1003E000676F746F20386165330063616C6C3A002D
:1003F00063616C6C73206120737562726F757469D0
:100400006E6520746F20626520657865637574651C
:10041000642E0D0A09090965782E2063616C6C2031
:1004200066343364006972616D3A00646973706C9C
:100430006179732074686520636F6E74656E747380
:10044000206F662074686520696E7465726E616CD9
:10045000206D656D6F727920617265612E00736623
:10046000723A00646973706C6179732074686520F6
:100470007370656369616C2066756E6374696F6E15
:10048000207265676973746572732E007772697480
:1004900065006D6F6469667920616E2073667220F5
:1004A00072656769737465722C0D0A0909096578AC
:1004B0002E2077726974652070312035350001AACD
:1004C00001B001D501D901FA0200023002360268FA
:1004D000026E029B02A202C502CC02F002F6033FAA
:1004E0000345039B03A103EA03F00425042B045EE8
:1004F0000463048C04920000000068656C70006C5A
:1005000073007065656B00706F6B650064756D706E
:1005100000636C6561720072657365740066696C76
:100520006C00636F707900676F746F006972616D42
:100530000073667200777269746500556E6B6E6F3A
:10054000776E20436F6D6D616E64006C6364004173
:100550006C6C6F77732074657374696E67206F6657
:1005600020746865206C63642073637265656E2017
:10057000696E2050312C2050330070776D00416C33
:100580006C6F77732074657374696E67206F662073
:100590007468652070776D206170706C6963617438
:1005A000696F6E2E00767431303200416C6C6F775B
:1005B000732074657374696E67207468652056547F
:1005C00031303220657363617065207365717565C4
:1005D0006E6365732E00054B054F0D20057A057E71
:1005E0000D2105A505AB0D220000000000005030D4
:1005F0000053500050434F4E0054434F4E00544D53
:100600004F4400544C3000544C3100544830005496
:1006100048310050310053434F4E0053425546007D
:1006200050320049450050330049500050535700A4
:10063000414343004200095F5F5F5F5F2F5C5C5C8A
:100640005C5C5C5C5C5C5C5C5C5F5F5F5F2F5C5C0B
:100650005C5C5C5C5C5C5C5C5C5C5C5C5C5F205F10
:100660005F5F5F5F5F2F5C5C5C5F2020202020204D
:1006700020200D0A09205F5F5F2F5C5C5C2F2F2F0D
:100680002F2F2F2F2F2F2F5F5F5F5F5C2F5C5C5C06
:100690002F2F2F2F2F2F2F2F2F2F2F5F5F205F5FB9
:1006A0002F5C5C5C5C5C5C5C5F2020202020202058
:1006B0000D0A0920205F5F2F5C5C5C5F5F5F5F5FFE
:1006C0005F5F5F5F5F5F5F5F5F5F5C2F5C5C5C5F76
:1006D0005F5F5F5F5F5F5F5F5F5F5F5F205F5C2F9C
:1006E0002F2F2F2F5C5C5C5F2020202020200D0A04
:1006F000092020205F5C2F5C5C5C5F5F5F5F2F5C8C
:100700005C5C5C5C5C5C5F5F5F5C2F5C5C5C5C5C4D
:100710005C5C5C5C5C5C5C5F5F5F5F5F5F5F5F5FFE
:100720005F5C2F5C5C5C5F20202020200D0A09208C
:100730002020205F5C2F5C5C5C5F5F5F5C2F2F2F55
:100740002F2F5C5C5C5F5F5F5C2F2F2F2F2F2F2F75
:100750002F2F2F2F2F5C5C5C5F5F5F5F5F5F5F5FA2
:100760005C2F5C5C5C5F202020200D0A092020208B
:1007700020205F5C2F5C5C5C5F5F5F5F5F5F5F5C46
:100780002F5C5C5C5F5F5F5F5F5F5F5F5F5F5F5FB2
:100790005F5F5C2F2F5C5C5C5F5F5F5F5F5F5F5CD8
:1007A0002F5C5C5C5F2020200D0A09202020202087
:1007B000205F5C2F5C5C5C5F5F5F5F5F5F5F5C2FF7
:1007C0005C5C5C5F5F5F2F5C5C5C5F5F5F5F5F5F7B
:1007D0005F5F5C2F5C5C5C5F5F5F5F5F5F5F5C2F98
:1007E0005C5C5C5F20200D0A092020202020202056
:1007F0005F5C2F2F5C5C5C5C5C5C5C5C5C5C5C5C90
:100800002F5F5F5F5C2F2F5C5C5C5C5C5C5C5C5CA6
:100810005C5C5C5C2F5F5F5F5F5F5F5F5F5C2F5C5A
:100820005C5C5F200D0A0920202020202020205F12
:100830005F5C2F2F2F2F2F2F2F2F2F2F2F2F5F5F0B
:100840005F5F5F5F5C2F2F2F2F2F2F2F2F2F2F2FCB
:100850002F2F5F5F5F5F5F5F5F5F5F5F5C2F2F2F9B
:100860005F200D0A00E493F5F0E6B5F00860040897
:10087000A380F2E422740122E493F5F0E6B5F006D9
:1008800008A3DAF4E4227401228E838F82E493C3F6
:100890009D7005DCF802089E7E007F00D322AE83A7
:1008A000AF82C3228E838F82E4E0600EC39D700509
:1008B000DCF60208BA7E007F0022AE83AF82228E71
:1008C000838F82E493F5F0A3AE83AF828C838D8215
:1008D000E0C395F0700EDBEBA3AC83AD828E838F0B
:1008E000820208EC40037F01227FFF227F00228EDC
:1008F000838F82E493F5F0A3AE83AF828C838D82E5
:10090000E5F0F0A3AC83AD82DBE5228E838F82EC31
:10091000F0A3DDFB228E838F82E0A3AE83AF828CB7
:10092000838D82F0A3AC83AD82DBEA22FAC39430DC
:10093000F9C3940A5002E922EA54DF943722C3FA39
:10094000940A4006EA2437442022EA243022FFC4D5
:10095000540F313EF5F0EF540F313E2212016690F4
:1009600004BEE493FF740193FE4F603B7409120DC3
:1009700035C083C0828F838E82120D3D7409120DA3
:1009800035120D35D082D083A3A3E493FF74019375
:10099000FEC083C0828F838E82120D3D120166D00D
:1009A00082D083A3A380BB221201669005D6E49374
:1009B000FF740193FE4F603D7409120D35C083C072
:1009C000828F838E82120D3D7409120D35120D3502
:1009D000D082D083A3A3E493FF740193FEC083C0AD
:1009E000828F838E82120D3D120166D082D083A346
:1009F000A3A3A380B92212016612015C12014A0866
:100A0000FF12014AFE8F838E82E0F5F0C4540F314D
:100A10003E120D35E5F0540F313E120D35120166D0
:100A20002212016612015C12014A08FF12014AFEFD
:100A30000812015C12014AFD8F838E82EDF01201D3
:100A4000662212016612015C12014AFF7409120D3E
:100A500035120AC91201667E007D10120A91120A2F
:100A60006B120166EE2410FEDDF1228F838E827CF4
:100A700010E0F5F0C4540F313E120D35E5F0540F7F
:100A8000313E120D357420120D35120D35A3DCE107
:100A900022EFC4540F313E120D35EF540F313E1288
:100AA0000D35EEC4540F313E120D35EE540F313E6C
:100AB000120D357420120D35120D35120D35120D33
:100AC0003522900D17120D3D227CFF7B100C7430E7
:100AD000120D35EC540F313E120D357420120D35C8
:100AE0007420120D35DBE62212016612015C120140
:100AF0004AFE0812014AFF0812015C12014AFD0871
:100B000012015C12014AFC310B2212016612015CD7
:100B100012014AFE0812014AFF0812015C12014A42
:100B2000FC0812014AFD0812015C12014AFB311552
:100B30002212016612015C12014AFE0812014AFFEC
:100B4000C007C00622221201667F0112016D51C941
:100B50001201667F0878007E10E8F5F0C4540F316A
:100B60003E120D35E5F0540F313E120D35C0077FB2
:100B70000112016DD007E6F5F0C4540F313E120D9D
:100B800035E5F0540F313E120D357420120D35123B
:100B90000D3508DEE1120166DFBD22120166900507
:100BA000EEE580120C8A7F0112016D900613E5902C
:100BB000120C8A9006207F0112016DE5A0120C8AAA
:100BC0007F0112016D900626E5B0120C8A7F01129A
:100BD000016D1201669005F4E587120C8A7F0112FF
:100BE000016D90062CE5D0120C8A7F0112016D90E8
:100BF0000629E5B8120C8A7F0112016D900623E5E3
:100C0000A8120C8A7F0112016D1201669005F9E5A8
:100C100088120C8A7F0112016D9005FEE589120C85
:100C20008A7F0112016D900603E58A120C8A7F010A
:100C300012016D900607E58B120C8A7F0112016D7F
:100C400090060BE58C120C8A7F0112016D90060F45
:100C5000E58D120C8A120166900616E598120C8A30
:100C60007F0112016D90061BE599120C8A12016634
:100C7000900630120C8A7F0112016D900634E5F067
:100C8000120C8A12016612016622C0E0120D3D7438
:100C900009120D35D0E0314EC0E0E5F0120D35D02F
:100CA000E0120D352212016612015CE6B4705408A0
:100CB000E608B4300B12015C12014AF580020D0502
:100CC000B4310B12015C12014AF590020D05B432E9
:100CD0000B12015C12014AF5A0020D05B4330B1290
:100CE000015C12014AF5B0020D05B4631608E6B4C2
:100CF0006F1108E6B46E0C0812015C12014AF58708
:100D0000020D05D322C3221B5B41001B5B42001B6B
:100D10005B43001B5B44001B5B481B5B324A0022A9
:100D2000222222758920758DFD759850D28E9000F3
:100D3000007400F022F5993099FDC29922E4936085
:100D400005B135A380F7223098FDE599C2982212AB
:100D50000D47120D35B40D028019B40A028014B487
:100D6000080D187420120D357408120D3580E0F648
:060D70000880DC76002281
:00000001FF
